:100000000C949A010C94AC010C94AC010C94D801A2
:100010000C94101E0C94AC010C94AC010C94AC012B
:100020000C94AC010C94AC010C94AC010C94291709
:100030000C94AC010C94AC010C94AC010C94AC018C
:100040000C9422160C94AC010C944F1B0C94D11BF5
:100050000C94AC010C94AC010C94AC010C94AC016C
:100060000C94AC010C94AC0165306B306E30713087
:1000700076307E30863021312131213193309630F7
:100080009F30A830213121312131213121312131DD
:10009000B430BE30CA30D230D530DE30E730ED304B
:1000A00021312131F630FF300A31A6042A102A10FE
:1000B000B004BB04C604D1042A10D5042A10E304FA
:1000C0002A10ED04F70428052A102A102A10010529
:1000D0000E051B05851B871BC01BC01BC01BC01B3F
:1000E000C01BC01BC01BC01BC01BC01B8D1B8F1B9C
:1000F000911B931B951B971B991B9B1BC01B9F1B45
:10010000A11BA31BA51BA71BA91BC01BAB1B084A3C
:10011000D73B3BCE016E84BCBFFDC12F3D6C74311B
:100120009ABD56833DDA3D00C77F11BED9E4BB4C72
:100130003E916BAAAABE000000803F05A84CCDB23C
:10014000D44EB93836A9020C50B9918688083CA61D
:10015000AAAA2ABE000000803F000D0A4772626C06
:1001600020666F72204C454B4E2D433128506F77DF
:1001700065726564206279204C454B4E290D0A005A
:10018000244E005B4F50543A005B5645523A312E94
:10019000316520666F72204C656B6E2E32303136C1
:1001A000313231393A005B544C4F3A005B473932B7
:1001B0003A003330003238005B4700204700204DC2
:1001C0000020530020460020540033382E005B47A7
:1001D000433A47005B484C503A24242024232024EF
:1001E0004720244920244E2024783D76616C202429
:1001F0004E783D6C696E6520244A3D6C696E6520C1
:1002000024534C50202443202458202448207E206E
:1002100021203F206374726C2D785D0D0A00536CB1
:10022000656570696E6700526573746F72696E6799
:10023000207370696E646C6500526573746F7269C7
:100240006E672064656661756C74730050676D201D
:10025000456E6400436865636B204C696D69747317
:1002600000436865636B20446F6F7200446973617B
:10027000626C656400456E61626C65640043617523
:1002800074696F6E3A20556E6C6F636B65640027FE
:100290002448277C2724582720746F20756E6C6FA4
:1002A000636B00526573657420746F20636F6E74A6
:1002B000696E7565005B4D53473A00414C41524DA4
:1002C0003A007C413A007C4F763A007C57434F3AE3
:1002D000007C506E3A007C46533A007C42663A00FD
:1002E0007C57506F733A007C4D506F733A00536CDB
:1002F00065657000446F6F723A00436865636B0018
:10030000416C61726D00486F6D65004A6F6700480F
:100310006F6C643A0052756E0049646C65000D0A9A
:10032000005B5052423A006572726F723A006F6B16
:100330000D0A000011241FBECFEFD8E0DEBFCDBFF5
:1003400027E0A0E0B1E001C01D92AF35B207E1F7B0
:100350000E94102C0C948B3A0C940000EBE6F0E019
:100360008081897E8083E8E6F0E080818E7F8083D3
:10037000089584B1897E84B985B1866185B98091FB
:10038000700183FF0BC080916B00866180936B00CE
:100390008091680081608093680008950C94AE019C
:1003A000F999FECF92BD81BD81E08FBB80B50895E4
:1003B0001F920F920FB60F9211242F933F934F93DA
:1003C0005F936F937F938F939F93AF93BF93EF93BD
:1003D000FF9380911A01813049F0809106078111C5
:1003E00005C00E94402981E00E94AC1DFF91EF9161
:1003F000BF91AF919F918F917F916F915F914F913D
:100400003F912F910F900FBE0F901F90189593B1B1
:1004100096718091700186FD02C086E1982799232C
:1004200049F091FB882780F992FD8260907119F064
:100430008460089580E0089561E071E087E991E0CB
:100440000C94C51D9F92AF92BF92CF92DF92EF9214
:10045000FF920F931F93CF93DF935B018A017C017F
:10046000E40EF51EEC01912C6B01C81AD90AC601E5
:100470008C0F9D1FCE15DF0589F00E94D0019110D1
:1004800008C0292D990C330B232F221F2227221F4E
:1004900001C021E0982E920E8993E9CFC501800F0B
:1004A000911F0E94D00121E030E0981611F020E069
:1004B00030E0C901DF91CF911F910F91FF90EF9034
:1004C000DF90CF90BF90AF909F900895F894F999E6
:1004D000FECF92BD81BD81E08FBB80B58627482FBE
:1004E000082E000C550B262F30E024233523232B18
:1004F00039F06F3F19F060BD84E006C084E104C0AC
:10050000882321F060BD84E28FBBF99A7894089526
:100510009F92AF92BF92CF92DF92EF92FF920F9392
:100520001F93CF93DF935C018A017B01E40EF51EDC
:10053000EB01912C6C01C61AD70ACE018C0D9D1DC2
:10054000CE15DF0589F0911008C0292D990C330BC9
:10055000232F221F2227221F01C021E06991922E02
:10056000960E0E946602E9CF692DC501800F911F8A
:10057000DF91CF911F910F91FF90EF90DF90CF907F
:10058000BF90AF909F900C94660290911B019111C7
:1005900008C0811102C0439802C086FD439A1092A0
:1005A000250108952F923F924F925F926F927F9212
:1005B0008F929F92AF92BF92CF92DF92EF92FF9273
:1005C0000F931F93CF93DF93CDB7DEB7CA54D109F2
:1005D0000FB6F894DEBF0FBECDBF89E3EFEBF1E0BD
:1005E000DF011D928A95E9F78AE0E0E8F1E0A0ECEE
:1005F000B1E001900D928A95E1F780910F07843266
:1006000011F00C944B1081E08093C0011092C10155
:1006100083E08A8FB1E0BBA3212C312C18AA1FA63E
:1006200010E01B8E1F8EEE24E394F12C3AE0A32EF3
:10063000B12C41E6842E43E0942E8A8DE82FF0E021
:10064000E15FF84FD080DD2009F427C29FEB9D0DBC
:100650009A3110F00C941C108F5F8A8FBE016A5E75
:100660007F4FCE014A960E946129882311F40C9491
:100670001E104E885F88688C798CC301B2010E947D
:10068000F6390E943437062F70E080E090E00E9437
:1006900065379B01AC01C301B2010E94BB3520E06C
:1006A00030E048EC52E40E9413390E9480390E94E5
:1006B0003437CB01E7E4DE1629F0FDE4DF1609F458
:1006C000EAC033C1083209F4C6C020F5043168F429
:1006D000013108F08AC0043009F452C008F464C043
:1006E0000A3009F445C00C942A100C3109F440C0BA
:1006F00050F4063110F00C942A1025E1201B2093B1
:10070000C20126E0ADC00E3199F1063209F44CC0A9
:100710000C942A100D3309F498C0A8F4053381F124
:1007200040F40B3209F47AC0013309F477C00C9419
:100730002A100C3310F00C942A106AEC600F6093AE
:10074000C60129E08DC00C3538F40A3508F053C0D5
:10075000003581F10C942A100C3551F00F3510F052
:100760000C942A102EE5201B2093C10125E078C0AF
:10077000009731F42F8D21110C94201031E03F8F20
:100780000093BF01202F2D7F2C3119F00C3509F07B
:1007900064C0009721F00A9711F00C942A10600FA2
:1007A0006093BF0120E061C04F8D41110C94201077
:1007B000A2E0AF8F0093C001063209F050C084312F
:1007C000910559F08E31910541F08832910529F05B
:1007D0008233910511F00C942A10B5010E94283A39
:1007E00066576093C00121E040C06FEE600F6093D8
:1007F000C40122E035C0892B31F466EA600F6093B2
:10080000C30123E032C06A30710511F00C942A1044
:100810000A3511F40C942A1024E027C0BF8DB111C1
:100820000C942010013331F41092C50128E0E3E06C
:10083000EF8F1BC00A9711F00C942A10F1E0F0938F
:10084000C50128E033E03F8F10C0892B11F00C94D4
:100850002A102AE00AC027E003C020E001C021E0FE
:10086000892B19F087E10C945210C70102C0880F40
:10087000991F2A95E2F72FA538A928233923232B7E
:1008800019F085E10C945210AFA5B8A9A82BB92B8B
:10089000B8ABAFA7D2CE892B29F7063018F40330B6
:1008A00058F016C0083010F40C942A100A30F0F0FA
:1008B0000E3159F00C942A10002319F0013001F187
:1008C00004C0B3E0B093C7011BC00093C70118C0B8
:1008D000043021F0053031F080E101C080E28093E6
:1008E000C90102C01092C9018CE00BC0093021F08F
:1008F00080E48093C80102C01092C8018DE001C05D
:100900008BE0F70102C0EE0FFF1F8A95E2F72FA5DB
:1009100038A92E233F23232B09F0B3CF2FA538A9C5
:100920002E2B3F2B38AB2FA788CE8D2DDD0C990BAE
:10093000AA0BBB0BFC01E654F109E531F10510F0FF
:100940000C942A10EB5AFF4F0C945E3A4092CA0165
:100950005092CB016092CC017092CD0180E079C0C1
:100960004092CE015092CF016092D0017092D1019D
:10097000116081E06EC04092D2015092D30160922A
:10098000D4017092D501126082E063C04092D6011A
:100990005092D7016092D8017092D901146083E01F
:1009A00058C00093DA0184E054C0C301B2010E9430
:1009B0002D376093DB017093DC018093DD01909310
:1009C000DE0185E046C04092DF015092E001609276
:1009D000E1017092E20186E03CC04092E301509256
:1009E000E4016092E5017092E60187E032C0409236
:1009F000E7015092E8016092E9017092EA0188E013
:100A000028C04092EC015092ED016092EE0170928C
:100A1000EF013B8D31603B8F8AE01BC04092F001BB
:100A20005092F1016092F2017092F3014B8D42609D
:100A30004B8F8BE00EC04092F4015092F501609212
:100A4000F6017092F7018B8D84608B8F8CE001C072
:100A500089E06701082E02C0CC0CDD1C0A94E2F785
:100A6000960122213321232B11F00C942210D40162
:100A700002C0B595A7958A95E2F7A0FF0BC020E0CC
:100A800030E0A901C301B2010E94B13687FF02C064
:100A90000C9424102C283D28D0CDBB8DBB2329F0ED
:100AA000EF8DE11102C0F2E0FF8F25FE0FC08091B3
:100AB000DB019091DC01A091DD01B091DE01813874
:100AC0009649A849B10514F00C9426103BA1332394
:100AD00029F020FC02C00C94301012C08091C1019A
:100AE000813041F44F8D4230B1F520FC02C00C94AE
:100AF000301031C08091810181112DC020FE1BC0BA
:100B00008091C201813039F523E333E34BEC51E4AA
:100B10006091CA017091CB018091CC019091CD017F
:100B20000E9413396093CA017093CB018093CC016A
:100B30009093CD0110C080918E0190918F01A09172
:100B40009001B09191018093CA019093CB01A09341
:100B5000CC01B093CD0130FC10C080918A019091FE
:100B60008B01A0918C01B0918D018093E70190934E
:100B7000E801A093E901B093EA018091BF018430BC
:100B800039F426FC03C08CE10C945210E89426F84A
:100B90008091C401882369F0813029F48FAF19AEA8
:100BA00092E09FAB0BC01FAEA2E0A9AFB1E0BFAB1C
:100BB00005C0E2E0EFAFF1E0F9AF1FAA8091C201FA
:100BC000813021F02F8D2330C9F52FC09FEBC92E26
:100BD00091E0D92EE12CF12C3B8DA32EB12CC50137
:100BE0000E2C02C0959587950A94E2F780FF12C0FB
:100BF00023E333E34BEC51E4D6019D966D917D9157
:100C00008D919C91D0970E941339F60165A776A724
:100C100087A790ABFFEFEF1AFF0A24E0C20ED11CAA
:100C200033E0E316F104D9F6CDCF8091C5018130D0
:100C300029F44B8D443011F00C9428108CE0E3EA39
:100C4000F1E0DE01119601900D928A95E1F78FA5F2
:100C500098A991FD08C00091BF010A30C9F00C3578
:100C600009F4B3C01EC18091C601873018F08DE130
:100C70000C94521090918601891769F3BE016F5F41
:100C80007F4F0E94F219882311F40C943E10E3CF99
:100C90009B8D911103C08AE10C945210C1018075A3
:100CA0009927892B09F46FCF6091DF017091E001E2
:100CB0008091E1019091E2010E94F6390E9434375F
:100CC0006730A8F68091DA01843141F0823011F06A
:100CD0000C942A1027FE02C00C942A10AFEA2A2294
:100CE000662319F0615069A703C0B091C601B9A786
:100CF0006EEC71E089A50E94F219882311F40C941E
:100D00003E100091DA014090BB015090BC01609010
:100D1000BD017090BE01BFEBEB2EB1E0FB2E80E871
:100D2000A82E81E0B82EC12CD12CEB8D8E2E912CCB
:100D3000C4010C2C02C0959587950A94E2F780FFB8
:100D400035C0043151F5D5019F962D913D914D91BE
:100D50005C91D29757966D917D918D919C915A9708
:100D60000E94BB35F70125A536A547A550A90E94CD
:100D7000BB35D7011F966D937D938D939C935297AE
:100D8000B2E0CB1213C0A30192010E94BB35F70160
:100D90006787708B818B928B09C0F70185A596A51B
:100DA000A7A5B0A98787908BA18BB28BFFEFCF1A35
:100DB000DF0A24E0E20EF11C34E0A30EB11C43E094
:100DC000C416D10409F0B4CF3FC18B8D882309F438
:100DD00062CF4090BB015090BC016090BD0170900B
:100DE000BE01F0E88F2EF1E09F2EDE0111967D010D
:100DF000AFEBCA2EA1E0DA2EA12CB12CE82FF0E047
:100E0000F8A7EFA38FA198A50A2C02C09595879506
:100E10000A94E2F780FF29C0D7012D913D914D91B1
:100E20005C91F4016789708D818D928D0E94BB3534
:100E3000D6019D962D913D914D915C91D0970E9448
:100E4000BB35F60165A776A787A790ABF2E0AF1296
:100E500016C0A30192010E94BB35D6019D966D93E9
:100E60007D938D939C93D0970AC0F40187A590A998
:100E7000A1A9B2A9F60185A796A7A7A7B0ABFFEFD6
:100E8000AF1ABF0A24E0820E911C34E0E30EF11C7D
:100E900044E0C40ED11C83E0A816B10409F0B2CF1F
:100EA000D2C09F8D933069F40E3109F494C005339C
:100EB00009F4C3C00C3109F0C6C06EEC71E086E0E5
:100EC0008DC0AB8DAA2381F3B091C301BFA3409025
:100ED000BB015090BC016090BD017090BE0170E8F4
:100EE000A72E71E0B72EEFEBEE2EE1E0FE2EFE0115
:100EF00031964F01C12CD12C2A2F30E03AA729A7D7
:100F000089A59AA50C2C02C0959587950A94E2F7BD
:100F100080FD0BC0F5018789908DA18DB28DF70101
:100F200085A796A7A7A7B0AB44C0053309F441C075
:100F3000FFA1F1112BC0D5019F962D913D914D91AF
:100F40005C91D297F40160817181828193810E94CA
:100F5000BC35D7019D962D913D914D915C91D097D7
:100F60000E94BC35F70165A776A787A790ABF2E092
:100F7000CF121FC0A30192010E94BC35D7019D96DC
:100F80006D937D938D939C93D09713C0F501278922
:100F9000308D418D528DD7019D966D917D918D91B2
:100FA0009C91D0970E94BC35F70165A776A787A7CB
:100FB00090ABFFEFCF1ADF0A24E0A20EB11C34E0A1
:100FC000E30EF11C44E0840E911C83E0C816D104AA
:100FD00009F096CF69CF6EEC71E087E00E94F219BC
:100FE000882311F40C943E109B8D911103C019A617
:100FF0001F8E2AC0A0E8B1E0EFEBF1E080E090E0C6
:101000004B8D242F30E0A901082E02C0559547953D
:101010000A94E2F740FD0AC057964D915D916D919B
:101020007C915A974787508B618B728B01961496EF
:1010300034968330910539F706C08091C001823023
:1010400010F00C942C1019A68091C0018FA380354C
:1010500029F49B8D91110C942E1079C2AF8DA23082
:1010600009F075C2BFA1B11104C0EB8DE1116FC2CF
:101070002AC020E030E0A9016091CA017091CB0143
:101080008091CC019091CD010E94B136882309F462
:10109000E7C7FFA1FC3809F444C240F4F230A9F0DC
:1010A000F330B1F0F13009F052C20AC02FA12E384E
:1010B00009F437C208F432C22F3809F42FC247C2EC
:1010C0003B8D311144C21F8E42C24BA144604BA3E1
:1010D0008B8D882309F4DFCDBFA9AB2FB0E0BCAB6B
:1010E000ABABF9ADEF2FF0E0FCAFEBAF81E090E000
:1010F0007C010FA802C0EE0CFF1C0A94E2F709ACB9
:1011000002C0880F991F0A94E2F7E82AF92A2B8D6A
:10111000822F90E08E219F21892B09F4A3C7CD0156
:10112000880F991F880F991FFC01E154FE4FDC01C5
:10113000A058BE4F57962D913D914D915C915A9775
:1011400065A576A587A590A90E94BB352B013C011A
:101150008BAD9CAD880F991F880F991FFC01E1543E
:10116000FE4FDC01A058BE4F57962D913D914D91F9
:101170005C915A9765A576A587A590A90E94BB3575
:101180004B015C01610130E8C322DD2427FEF6C07B
:10119000E89427F84CE050E06CEE71E087E991E0CC
:1011A0000E947E3A892B11F481E27CC78091C201B2
:1011B0008130B1F423E333E34BEC51E46091E3017C
:1011C0007091E4018091E5019091E6010E9413394C
:1011D0006093E3017093E4018093E5019093E6014D
:1011E0008091E3019091E401A091E501B091E601C5
:1011F0008BA79CA7ADA7BEA7A3019201C301B20113
:101200000E94133927966CAF7DAF8EAF9FAF2797A3
:10121000A5019401C501B4010E9413392B966CAF4E
:101220007DAF8EAF9FAF2B9720E030E040E850E4D9
:101230006BA57CA58DA59EA50E9413392BA53CA569
:101240004DA55EA50E94133927962CAD3DAD4EAD40
:101250005FAD27970E94BB352B962CAD3DAD4EADB3
:101260005FAD2B970E94BB356B017C0120E030E025
:10127000A9010E94B13687FDF7C6C701B6010E94D9
:10128000B2396B017C012B962CAD3DAD4EAD5FADFF
:101290002B9727966CAD7DAD8EAD9FAD27970E94A5
:1012A000BC350E94B2399B01AC01C701B601905810
:1012B0000E94BB366B017C019FA1933021F4F7FAA9
:1012C000F094F7F8F09420E030E0A9016BA57CA53C
:1012D0008DA59EA50E94B13687FF11C0F7FAF09444
:1012E000F7F8F0948BA59CA5ADA5BEA5B05880934A
:1012F000E3019093E401A093E501B093E6010BA90B
:101300001CA9000F111F000F111F0D531E4FA70125
:101310009601C501B4010E9413399B01AC01C301C0
:10132000B2010E94BB3520E030E040E05FE30E9464
:101330001339D8011B966D937D938D939C931E97C3
:101340000BAD1CAD000F111F000F111F0D531E4FD1
:10135000A7019601C301B2010E941339A5019401AE
:101360000E94BC3520E030E040E05FE30E9413398A
:10137000F8016387748785879687E9C0212F30E05D
:101380003CA72BA7E222F322EF2809F46FC631EF26
:1013900023228091C201813009F47BC0EBA9FCA912
:1013A000EE0FFF1FEE0FFF1FED53FE4FC384D484DB
:1013B000E584F684A7019601C301B2010E94BB3502
:1013C0002B013C01EBADFCADEE0FFF1FEE0FFF1F3D
:1013D000ED53FE4F83859485A585B6858BA79CA785
:1013E000ADA7BEA79C01AD01C501B4010E94BB35EC
:1013F0004B015C01A3019201C301B2010E941339A8
:101400002B013C01A5019401C501B4010E941339CF
:101410009B01AC01C301B2010E94BC350E94B239EC
:101420004B015C01A7019601C701B6010E94133967
:101430006B017C012BA53CA54DA55EA5CA01B90198
:101440000E9413399B01AC01C701B6010E94BC3553
:101450000E94B2396B017C016093E3017093E40157
:101460008093E5019093E6019B01AC01C501B401B5
:101470000E94BB354B015C01E894B7F82AE037EDD8
:1014800043EA5BE3C501B4010E94D33818164CF15E
:101490005EC00FEB11E08BA59CA50C2C02C09595AE
:1014A00087950A94E2F780FF12C023E333E34BEC05
:1014B00051E4D8011F966D917D918D919C91529729
:1014C0000E941339F8016787708B818B928BFFEF35
:1014D000CF1ADF0A0C5F1F4F23E0C216D104D9F6E2
:1014E0005DCF20E030E040E05FE3C501B4010E9441
:1014F000D33818160CF458CE2FE632E143E85AE3FD
:10150000C701B6010E9413399B01AC01C501B401AA
:101510000E94D33818160CF447CE19C03BA1306195
:101520003BA38FA18E58823018F44BA148604BA387
:101530008B8D882309F4AFCB4CE050E06CEE71E06A
:1015400087E991E00E947E3A892B09F42DCE2BA1E8
:1015500021709BA190FF03C0C1018E7D03C0C1011A
:101560008E7D9C7FAF8DA111937E892B09F080C564
:101570008E01035F1F4F89E0F80111928A95E9F708
:10158000222309F44BC08FA598A9867B892B09F0EB
:1015900071C58091BF01853311F081116BC58091B8
:1015A0008A0190918B01A0918C01B0918D01898B62
:1015B0009A8BAB8BBC8B9091890180918801892B90
:1015C0004091CA015091CB016091CC017091CD0145
:1015D0004D875E876F87788B84608D8B80917001DB
:1015E00085FF06C08CEE91E00E94AD31811144C5AB
:1015F000B8018CEE91E00E946A3580911A01811148
:101600003FC50E949227892B09F43AC580E2809356
:101610001A010E94481E0E946E1632C58091700108
:10162000F090890181FF26C08FA18150833018F08E
:10163000FBA1F064FBA32B8D222339F03F8D3230C8
:1016400021F44BA140684BA315C080E1F81212C0F1
:101650008091800181509BA19074833030F4992354
:1016600049F09BA190629BA305C0911103C0ABA15F
:10167000A062ABA38091DB019091DC01A091DD0120
:10168000B091DE018093930190939401A093950112
:10169000B09396018091C10180938101882311F05C
:1016A00088E08D8B8091CA019091CB01A091CC01F3
:1016B000B091CD0180938E0190938F01A093900102
:1016C000B09391018D879E87AF87B88B8090E7019B
:1016D0009090E801A090E901B090EA01A501940181
:1016E00060918A0170918B0180918C0190918D01A4
:1016F0000E94B136BBA1B074EB2E811103C0EBA1E7
:10170000E5FF20C0FF2071F0FBA1F7FD0BC0EE202C
:1017100021F040E050E0BA0102C0B501A4018F2DD4
:101720000E9465318091E7019091E801A091E90163
:10173000B091EA0180938A0190938B01A0938C0170
:10174000B0938D01E1100CC080918A0190918B01C2
:10175000A0918C01B0918D01898B9A8BAB8BBC8B46
:101760008091EB01809392018091C9019091890150
:10177000981751F049895A896B897C890E94653193
:101780008091C901809389019D8980918901892B6C
:101790008D8BF090C801809188018F15A9F0809100
:1017A0001A01823029F00E94A2278F2D0E94C502C3
:1017B0008091C801811103C01092880105C09091E9
:1017C0008801892B809388019D8980918801892BCC
:1017D0008D8B8091BF01843099F4C090DF01D0904F
:1017E000E001E090E101F090E20180911A01823085
:1017F00039F00E94A22740E0C701B6010E941129DA
:101800008091C401809384018091C2018093820100
:101810002F8D233071F58091C50180938501811151
:1018200008C01092F4011092F5011092F601109286
:10183000F701C090F401D090F501E090F601F0902E
:10184000F701A70196016091BB017091BC018091E5
:10185000BD019091BE010E94B136882351F0C09223
:10186000BB01D092BC01E092BD01F092BE010E948A
:10187000E8318091C60190918601981769F08093B4
:1018800086018CE0FE013196A3EAB1E001900D9251
:101890008A95E1F70E94E8318091C301809383012A
:1018A0008091BF018632F1F138F48C3109F18E312B
:1018B000F9F08A3069F04FC08C35D1F1863609F4E1
:1018C00041C0883209F047C067E971E087E02DC068
:1018D0006EEC71E089A50E94DE198091860139A520
:1018E000381339C08CE0EEECF1E0A3EAB1E025C09A
:1018F0008D8981608D8B4F8D442329F0B8018CEE4A
:1019000091E00E946A35B8018EEC91E00E946A3540
:101910008CE0EEECF1E0A7E9B1E001900D928A9540
:10192000E1F719C067E971E086E00E94DE1913C093
:101930008CE0ECEEF1E0AFEAB1E001900D928A9517
:10194000E1F707C08CE0EFEAF1E0DF011D928A9534
:10195000E9F70E94E8318091C001809380018035D1
:1019600009F41CC3BF8DB23009F018C3813021F4D3
:10197000BE01635F7F4F06C0811109C08D89816000
:101980008D8BB8018CEE91E00E946A35FEC28250C8
:10199000823008F093C28091E3019091E401A0911C
:1019A000E501B091E6018F8F98A3A9A3BAA3AFA9CF
:1019B00094E0A99F70011124F701E956FE4FF8A7A2
:1019C000EFA3970122533E4F3AA729A7D9014D9083
:1019D0005D906D907C902081318142815381C30163
:1019E000B2010E94BC356FA778AB89AB9AABE9AD69
:1019F000B4E0EB9F80011124980129563E4F38AF87
:101A00002FABC80182539E4F9AAF89AFDC018D90F6
:101A10009D90AD90BC90F90120813181428153812C
:101A2000C501B4010E94BC356BA77CA78DA79EA7FA
:101A300077FA709477F87094D501C401B0588B8F01
:101A40009C8FAD8FBE8FF701E451FE4F2FA538A9B3
:101A500049A95AA960817181828193810E94BB3515
:101A60006B017C01F801E451FE4F2BA53CA54DA56F
:101A70005EA560817181828193810E94BB354B019B
:101A80005C01A7019601C301B2010E9413396BAB3F
:101A90007CAB8DAB9EABA50194016B8D7C8D8D8D48
:101AA0009E8D0E9413399B01AC016BA97CA98DA965
:101AB0009EA90E94BC356BAB7CAB8DAB9EABA501E8
:101AC0009401C301B2010E9413394B015C01A701CB
:101AD00096016B8D7C8D8D8D9E8D0E9413399B019F
:101AE000AC01C501B4010E94BB352BA93CA94DA98D
:101AF0005EA90E943B366B017C019BA192FF13C043
:101B00002DEB37E346E055EBC701B6010E94D33811
:101B100087FD1DC02BED3FE049EC50E4C701B60145
:101B20000E94BB3512C02DEB37E346E055E3C701F9
:101B3000B6010E94B136181654F02BED3FE049EC87
:101B400050E4C701B6010E94BC356B017C01809056
:101B5000640190906501A0906601B09067012F8D9F
:101B600038A149A15AA1CA01B9010E94BC35A501F9
:101B700094010E94BB35A50194010E9413390E9473
:101B8000B2394B015C0120E030E040E05FE3C70187
:101B9000B6010E9413392F8D38A149A15AA10E9484
:101BA00013399F77A50194010E94BB360E94A0378C
:101BB0000E9434377CAB6BABDB01AB2B09F4D8CE86
:101BC0001D894B01A12CB12C13FF12C0C501B4011A
:101BD0000E9463379B01AC016D857E858F85988956
:101BE0000E9413396D877E878F87988B177F1D8B97
:101BF000C501B4010E9463374B015C019B01AC013C
:101C0000C701B6010E94BB366BA37CA38DA39EA324
:101C1000EFADB4E0EB9FC00111248C0109561E4FBB
:101C2000FC01E451FE4FD8012D913D914D915C9105
:101C300060817181828193810E94BB35A5019401ED
:101C40000E94BB3627966CAF7DAF8EAF9FAF2797B4
:101C50002BA13CA14DA15EA1CA01B9010E9413397B
:101C60009B01AC0160E070E080E090E40E94BB3535
:101C70006B017C012BEA3AEA4AE25EE36BA17CA1AC
:101C80008DA19EA10E9413394B015C0120E030E040
:101C900040E850E4C701B6010E94BC359B01AC018D
:101CA000C501B4010E9413396BAF7CAF8DAF9EAFFD
:101CB00020E030E040E05FE3C701B6010E94133945
:101CC00023966CAF7DAF8EAF9FAF23971F8E2224DC
:101CD0002394312CEBA9FCA9E215F30509F448CEB5
:101CE000BF8DBC3008F044C02B8D3C8D4D8D5E8D7A
:101CF00023966CAD7DAD8EAD9FAD23970E941339B9
:101D00006B017C01A30192016BAD7CAD8DAD9EADED
:101D10000E941339A70196010E94BC357B016C011A
:101D2000A301920123966CAD7DAD8EAD9FAD23973F
:101D30000E9413394B015C012B8D3C8D4D8D5E8DC6
:101D40006BAD7CAD8DAD9EAD0E9413399B01AC0196
:101D5000C501B4010E94BB352B013C01EF8DEF5F43
:101D6000EF8F470156018B8E9C8EAD8EBE8E65C067
:101D7000B10180E090E00E9463372BA13CA14DA10E
:101D80005EA10E9413396B017C010E94B6366B8FF5
:101D90007C8F8D8F9E8FC701B6010E94A4394B01A5
:101DA0005C01A9A5BAA5CD90DD90ED90FC90F7FA65
:101DB000F094F7F8F094A9ADBAAD8D919D910D9086
:101DC000BC91A02D8F8F98A3A9A3BAA3A7019601B8
:101DD0006B8D7C8D8D8D9E8D0E9413392B013C0166
:101DE0002F8D38A149A15AA1C501B4010E94133910
:101DF0009B01AC01C301B2010E94BC352B013C0127
:101E0000A7019601C501B4010E9413396B017C0141
:101E10002F8D38A149A15AA16B8D7C8D8D8D9E8D02
:101E20000E9413399B01AC01C701B6010E94BB356A
:101E30006B8F7C8F8D8F9E8F1F8EA30192016FA55C
:101E400078A989A99AA90E94BC35EFA1F8A5608359
:101E50007183828393832B8D3C8D4D8D5E8D6BA51D
:101E60007CA58DA59EA50E94BC35AFA9B8AD6D938C
:101E70007D938D939C93139727962CAD3DAD4EADDE
:101E80005FAD2797F80160817181828193810E9403
:101E9000BC35D8016D937D938D939C931397BE01B0
:101EA000635F7F4F87E991E00E946A3580911B0153
:101EB00081116BC0BFEF2B1A3B0A0CCF8D89846058
:101EC0008D8B80911A01823009F45FC00E94A22795
:101ED00080911B01811162C0FBA1F071FF2E109255
:101EE0001F012BA123FB882780F90E940C2686B1B5
:101EF000807290910001891749F084E00E94AC1D26
:101F00000E94F31480E00E940C2648C0B8018CEEB9
:101F100091E00E946A3581E08093190182E00E947D
:101F2000BC1D0E94F31480911B01811137C0809168
:101F30001A018111F6CF80911901813081F4FF20BF
:101F400051F08CE0E1E0F1E0ADE0B1E001900D9204
:101F50008A95E1F707C085E00E94AC1D03C081E0CF
:101F600080931F011092190180E00E940C260E94AC
:101F7000F3140E94D9250E94B3270E940E270E94C5
:101F8000833180911F0181118AC08CE0ECEEF1E079
:101F9000A7E9B1E001900D928A95E1F78091C70120
:101FA00080938701882309F47DC00E94A227809135
:101FB000870190911A01833041F49230D1F188E089
:101FC0000E94BC1D0E94F31434C081E08093800104
:101FD0001092840110928301109281011092860167
:101FE000109289011092880184E6809321018093E8
:101FF000220180932301923091F063EA71E080E046
:102000000E94F2198823D1F10E94E83140E050E0AB
:10201000BA0180E00E94751980E00E94C50285EB3C
:1020200092E00E94FF268CE492E00E94FF260E942C
:10203000BD10109287012DC081E034C082E032C013
:1020400088E130C089E12EC084E02CC08BE12AC039
:1020500085E228C084E126C08EE124C08FE122C041
:1020600086E120C080E21EC082E21CC083E21AC06A
:1020700084E218C080E116C08FE014C087E012C06F
:102080008CE0ECEEF1E0A7E9B1E001900D928A95C9
:10209000E1F780E007C01A8E1BA20C940C030E948B
:1020A0001C027CCFC65BDF4F0FB6F894DEBF0FBEBD
:1020B000CDBFDF91CF911F910F91FF90EF90DF90F7
:1020C000CF90BF90AF909F908F907F906F905F90D8
:1020D0004F903F902F9008950F931F93CF938C01B3
:1020E000C0E0F80161917191819191918F010E94FD
:1020F000CA26C23019F08CE20E94FB1BCF5FC330AE
:1021000081F7CF911F910F9108958EE193E00C9488
:10211000FF26CF92DF92EF92FF92CF93DF93D82FDB
:102120006A017B01C22F84E20E94FB1B8D2F0E945B
:10213000D9268DE30E94FB1B4C2FC701B6010E94DC
:102140001E26DF91CF91FF90EF90DF90CF900C94FF
:102150008510CF93DF93D82FC62F84E20E94FB1BFC
:102160008D2F0E94D9268DE30E94FB1B8C2F0E948D
:10217000D926DF91CF910C9485108DE50E94FB1B31
:102180000C9485103F924F925F926F927F928F9244
:102190009F92AF92BF92CF92DF92EF92FF920F93F6
:1021A0001F93CF93DF93CDB7DEB7A4970FB6F89404
:1021B000DEBF0FBECDBF10910607112391F181E064
:1021C00080931A018BEB92E00E94FF26812F0E94E0
:1021D000D9260E94851085EF91E0019739F0EFE94B
:1021E000FFE03197F1F700C00000F7CF1150123037
:1021F00030F08FB7F894109206078FBF12C085EBAE
:1022000092E00E94FF2683EA92E00E94FF260E944D
:10221000BD1080E10E94B21D8091050784FFFCCFB4
:10222000E8CF10910507112309F4BBC214FF04C0C5
:1022300081E080931B01BFC310FFBFC18CE0E1E0D0
:10224000F1E0DE01599601900D928A95E1F7BE0109
:10225000675E7F4FCE010D960E94C51D8CE30E94E4
:10226000FB1B80911A018830E1F058F4813099F11C
:10227000A8F0823099F1843009F043C086E093E001
:102280003EC0803229F118F4803171F03AC08034B8
:1022900041F18038B1F58EEE92E031C089E193E0F2
:1022A0002EC085E193E02BC080911C0187FD10C0FA
:1022B0008FE093E00E94FF2680911C0180FF06C002
:1022C00080E31AC082FF17C085FFFACF81E314C0F4
:1022D0008BE093E014C080E093E011C08AEF92E0BD
:1022E0000EC084EF92E00E94FF2680911C0183FFC4
:1022F000E9CF83E301C082E30E94FB1B02C00E947E
:10230000FF2680915F01F82FF170BF2E80FF07C07C
:1023100080912601882319F087EE92E053C0409007
:10232000BB015090BC016090BD017090BE0143EABA
:10233000842E41E0942E9E012F5F3F4F7901CE0104
:102340000D966C0100E0F401619171918191919180
:102350004F0120853185428553850E94BC35F701A8
:102360006083718382839383023061F4A3019201BD
:102370000E94BC35F7016083718382839383BB2005
:1023800019F0CACFB11011C0F7012081318142810B
:102390005381F60160817181828193810E94BB35F6
:1023A000F60160837183828393830F5FF4E0EF0E05
:1023B000F11C24E0C20ED11C033029F6B110ACCFC1
:1023C00080EE92E00E94FF26CE010D960E946C10D6
:1023D00080915F0181FF1FC08BED92E00E94FF267C
:1023E00090914E0680912D03981710F0815F01C0E7
:1023F0008150891B0E94D9268CE20E94FB1B809190
:10240000950290919602981710F0805801C0815063
:10241000891B0E94D92686ED92E00E94FF268091BA
:102420001A018C7749F06091EC067091ED0680916D
:10243000EE069091EF0603C060E070E0CB010E94D1
:10244000BB268CE20E94FB1B609127017091280142
:102450008091290190912A0140E00E941E260E944D
:102460000702F82E0E94011E082F86B1982F907245
:1024700080910001E92EE8268F2D802B8E2959F1BD
:1024800081ED92E00E94FF26EE2019F080E50E9487
:10249000FB1BFF2079F0F0FE03C088E50E94FB1BC8
:1024A000F1FE03C089E50E94FB1BF2FE03C08AE532
:1024B0000E94FB1B002379F000FF03C082E50E940D
:1024C000FB1B01FF03C088E40E94FB1B02FF03C04B
:1024D00083E50E94FB1B80912601882321F0815017
:1024E0008093260118C080911A018C7711F08DE13C
:1024F00001C089E08093260180912501811103C0EC
:1025000081E0809325018BEC92E00E94FF26CE01B2
:1025100001960E946C1000912501002321F00150CA
:102520000093250142C080911A018C7711F083E15C
:1025300001C089E08093250186EC92E00E94FF268D
:10254000809121010E94D9268CE20E94FB1B809180
:1025500022010E94D9268CE20E94FB1B809123015C
:102560000E94D9268091B00087FF05C02D9B02C034
:1025700002E001C001E0439B03C0FF24F39403C0C9
:10258000002399F0F12C82EC92E00E94FF260023B8
:1025900039F0013011F483E501C083E40E94FB1B94
:1025A000FF2019F086E40E94FB1B8EE30E94FB1BB8
:1025B0000E94851081E00E94B21D812F887E09F45F
:1025C00067C080911A01982F937009F050C08872EB
:1025D000A1F080911C01807C81F40E94B52582E0ED
:1025E00080931E0180911A01803239F417FDE1C1F8
:1025F00080911C01806880931C0180911A018111D7
:1026000003C091E090931C0116FF07C085FD05C033
:1026100090911C01906490931C0113FF05C0807E73
:1026200019F480E180931A0115FF21C085EB92E037
:102630000E94FF2681E692E00E94FF260E94BD10C4
:1026400080911C0187FD0EC090911A01903439F4DD
:1026500083FFABC1837E826080931C01A6C190384A
:1026600009F0A3C180911C01806280931C0117FFB7
:102670000CC080911A01813029F480911C01856081
:1026800080931C0180E880931A0188EE0E94B21D9D
:1026900011FF44C0812F8876F1F580911A018034B2
:1026A00071F480911C0185FD0AC084FF03C0109263
:1026B0001A0105C082FF03C0886080931C018091CD
:1026C0001A01882381F084FF26C090911C0190FF9D
:1026D00022C0803141F480912401882321F0886058
:1026E0008093240118C010921E010E949227892B0A
:1026F00071F080911C0186FD0AC010921C0188E0D7
:1027000080931A010E94481E0E946E1604C0109207
:102710001C0110921A0182E00E94B21D12FF41C0FA
:1027200080911A01807D90911C018823D9F08091BD
:102730001D01811117C097FD15C00E94B52580911C
:102740002D0380932C030E94C42780911E0181FFDA
:1027500005C090911C01916090931C01897F80932A
:102760001E011CC097FF0AC010921E010E94B327D1
:102770000E94D9250E941C020E940E2780911C01F4
:1027800085FF08C08F77816080931C0180E480936F
:102790001A0104C010921C0110921A0184E00E94D8
:1027A000B21D90910707992309F4ABC08FB7F89435
:1027B000109207078FBF4091210190FD02C0842F26
:1027C00001C084E691FD865F92FD8A5093FD8F5F84
:1027D00094FD8150893C08F088EC8A3008F48AE046
:1027E0003091220195FD02C0232F01C024E696FD01
:1027F00022E397FD29E1481303C0231709F481C0A0
:1028000080932101209322011092250110912D0324
:1028100030904E0689E9D82E96E7E92E26E9F22E69
:102820000EE732E3432E131509F457C0812E912C85
:10283000489CC001499C900D1124FC01E25DFC4FB5
:102840005F01CF010E941F27562E672E782EC92EBA
:102850002D2D3E2D4F2D502F0E94D33818164CF49D
:102860002D2D3E2D4F2D502F6D2D7E2D8F2D902FE8
:1028700008C0252D362D472D5C2D652D762D872DF5
:102880009C2D0E941339F501668B778B808F918F79
:10289000489CC001499C900D11249C01225D3C4F35
:1028A0007901F90182A093A0A4A0B5A0A50194018B
:1028B00066897789808D918D0E94D33818162CF403
:1028C000F701868A978AA08EB18E1F5F103109F4B6
:1028D00010E0D52C73010C2DA6CF8D2D9E2DAF2D84
:1028E000B02F8093100290931102A0931202B09324
:1028F00013020E94B52580912D0380932C030E9422
:10290000C42790910807992309F448C08FB7F89419
:10291000109208078FBF2091230190FD02C0822FE3
:1029200001C084E691FD865F92FD8A5093FD8F5F22
:1029300094FD8150893C08F088EC8A3008F48AE0E4
:10294000281749F020911E01286020931E018093D2
:1029500023011092250180911A0195FF0DC080314D
:1029600059F420912401211102C022E003C020FF6C
:1029700003C0246020932401907C81F0882311F00F
:10298000887161F01091880116FF02C01F7B01C0A1
:102990001064812F0E94C5021093880180911A0152
:1029A0008C7F49F00E94481E06C080E480931A0183
:1029B00059CE80E229CEA4960FB6F894DEBF0FBEA2
:1029C000CDBFDF91CF911F910F91FF90EF90DF90DE
:1029D000CF90BF90AF909F908F907F906F905F90BF
:1029E0004F903F900895CF92DF92EF92FF921F9306
:1029F000CF93DF930E94C21080911C01882309F4B9
:102A0000F6C00E949227009771F4C09189018091CD
:102A10008801C82BC0908A01D0908B01E0908C0176
:102A2000F0908D0106C0FC01C189C6A4D7A4E0A81E
:102A3000F1A88091700181FF03C080E20E949A1D7D
:102A4000DC2FD07311E0C07480911C01882309F43D
:102A5000CEC090911B019111CAC080FFC5C090915A
:102A60001A01292F207C09F474C082FD12C0109233
:102A7000240140E050E0BA0180E00E94751980E036
:102A80000E94C50280911C018D7F846080931C018F
:102A9000ABC09038E1F485EB92E00E94FF268EE116
:102AA00092E00E94FF260E94BD1040E050E0BA0173
:102AB00080E00E94751980E00E94C5020E943816CD
:102AC00080911B01811193C00E94C210F9CF9034F4
:102AD00019F48F7D80931C0180911C0183FF84C0B9
:102AE000909189019923C1F081FD16C080917001F8
:102AF00081FF06C080911E01886080931E010CC07A
:102B0000B701A6018D2F0E94751941E060E070E0C9
:102B100080E890E40E94112980918801882371F057
:102B200080911C0181FD0AC08C2F0E94C50241E0EA
:102B300060E070E080E89FE30E94112980911C0111
:102B400081FD52C0806180931C0182E00E94BC1D07
:102B50004BC0809124018823C9F181FF0DC0809171
:102B600089018823B1F040E050E0BA0180E00E9482
:102B700075191093240138C08C70B1F180918901CE
:102B800081110AC08091240183FF03C082E00E946A
:102B9000BC1D1092240128C085EB92E00E94FF2604
:102BA00087E292E00E94FF260E94BD108091700192
:102BB00081FF06C080911E01886080931E01E2CFD4
:102BC000B701A6018D2F0E947519DCCF80911E01DF
:102BD00083FF0AC0B701A6018D2F0E94751980914D
:102BE0001E01877F80931E010E94C2102DCFDF91AE
:102BF000CF911F91FF90EF90DF90CF9008950E94AA
:102C00009227892B19F082E00C94BC1D08958091C5
:102C10005C01682F20915D01422F982F917080FDFB
:102C200094E0822F817020FD80E261FD986041FD7B
:102C3000806462FD906142FD8068909306038093FA
:102C4000070308951F920F920FB60F9211248F93CE
:102C50009F938BB1909106039C71837E892B8BB9D6
:102C600015BC9F918F910F900FBE0F901F901895DC
:102C700080916F008D7F80936F0080918100887FAD
:102C80008160809381001092080380915E01909191
:102C90001A018F3F39F420910607211103C09038A3
:102CA00081F402C0943069F090E0009741F0EFE9C0
:102CB000FFE03197F1F700C000000197F6CF81E007
:102CC00001C080E09091700192FF02C091E08927DD
:102CD000882311F0289A089528980895809170010A
:102CE00082FF02C0289A01C0289880910603809331
:102CF000170380915B01880F8450819580931603A0
:102D000080916F00826080936F0008954F925F9270
:102D10006F927F928F929F92AF92BF92CF92DF92EB
:102D2000EF92FF926B017C0180906C0190906D019D
:102D3000A0906E01B0906F014090680150906901C1
:102D400060906A0170906B01A3019201C501B4010A
:102D50000E94D33887FF19C06091230170E080E0A2
:102D600090E00E9465372AE037ED43E25CE30E9481
:102D70001339A70196010E9413396B017C01A3014D
:102D800092010E94D33887FD0AC0409227015092D9
:102D900028016092290170922A018FEF47C0A50196
:102DA0009401C701B6010E94B1361816E4F020E084
:102DB00030E0A901C701B6010E94B136811109C0F6
:102DC00010922701109228011092290110922A01D5
:102DD0002DC08092270190922801A0922901B092E3
:102DE0002A0181E023C0C0922701D0922801E092FD
:102DF0002901F0922A01A5019401C701B6010E94A0
:102E0000BB3520910203309103034091040350919C
:102E100005030E9413390E94A03720E030E040E80B
:102E20005FE30E94BC350E943437862FFF90EF90FD
:102E3000DF90CF90BF90AF909F908F907F906F90DA
:102E40005F904F900895E0EBF0E080818F77808372
:102E500008951F920F920FB60F9211242F933F9354
:102E60004F935F936F937F938F939F93AF93BF9392
:102E7000EF93FF9380910803811126C28BB190914B
:102E80001803907E8F71892B8BB98BB1837E9091C3
:102E90001703892B8BB98091160386BD82E085BD0F
:102EA00081E080930803789480912A0390912B030A
:102EB000892B09F0C3C080914F0690917A0698172C
:102EC00009F4AEC0E0914F062E2F30E087E0E89F76
:102ED000F0011124E05BF94FF0932B03E0932A03F8
:102EE0008281938190938900809388008081918171
:102EF0009093260380932503E481809127038E1706
:102F000061F1E093270382E1E89FF0011124E55885
:102F1000F94FF0932903E093280384859585A685CE
:102F2000B785B695A795979587958093110390934C
:102F30001203A0931303B093140380930D03909393
:102F40000E03A0930F03B093100380930903909393
:102F50000A03A0930B03B0930C03A0912803B09134
:102F6000290350969C91509780910703892780935D
:102F7000180387E0829FF001839FF00D1124E05B2E
:102F8000F94F25814D915D916D917C911397022EA2
:102F900004C076956795579547950A94D2F7409364
:102FA000190350931A0360931B0370931C03149628
:102FB0004D915D916D917C911797022E04C076958D
:102FC0006795579547950A94D2F740931D03509300
:102FD0001E0360931F037093200318968D919D919B
:102FE0000D90BC91A02D04C0B695A7959795879597
:102FF0002A95D2F78093210390932203A093230371
:10300000B09324038681811103C00E94231716C048
:103010008093B3008091B00080688093B0000EC0B0
:103020000E943816E0912803F091290381898111CB
:103030000E94231784E00E94BC1D46C180911901A3
:103040008130B1F486B1807290910001891781F0CE
:10305000109219018CE0E1E0F1E0ADE0B1E0019007
:103060000D928A95E1F780910507806480930507AA
:10307000109217034091090350910A0360910B03CA
:1030800070910C038091190390911A03A0911B0376
:10309000B0911C03840F951FA61FB71F80930903CF
:1030A00090930A03A0930B03B0930C03E0912803C1
:1030B000F09129034485558566857785481759071A
:1030C0006A077B0768F524E020931703448555853C
:1030D00066857785841B950BA60BB70B8093090338
:1030E00090930A03A0930B03B0930C032089809163
:1030F000010190910201A0910301B091040125FF0B
:1031000004C00197A109B10903C00196A11DB11D19
:103110008093010190930201A0930301B0930401F5
:1031200040910D0350910E0360910F0370911003B5
:1031300080911D0390911E03A0911F03B091200365
:10314000840F951FA61FB71F80930D0390930E0346
:10315000A0930F03B093100344855585668577854A
:10316000481759076A077B0778F5209117032860ED
:10317000209317034485558566857785841B950BB9
:10318000A60BB70B80930D0390930E03A0930F0330
:10319000B093100320898091050190910601A091C0
:1031A0000701B091080126FF04C00197A109B109E8
:1031B00003C00196A11DB11D8093050190930601E6
:1031C000A0930701B093080140911103509112039D
:1031D0006091130370911403809121039091220355
:1031E000A0912303B0912403840F951FA61FB71F3E
:1031F0008093110390931203A0931303B0931403CD
:103200004485558566857785481759076A077B0782
:1032100078F5209117032061209317034485558585
:1032200066857785841B950BA60BB70B80931103DE
:1032300090931203A0931303B093140320898091F9
:10324000090190910A01A0910B01B0910C0127FF97
:1032500004C00197A109B10903C00196A11DB11DC8
:103260008093090190930A01A0930B01B0930C0184
:1032700080911A01843039F49091170380912001D4
:10328000892380931703809125039091260301974A
:103290009093260380932503892B69F410922B03C6
:1032A00010922A0380914F068F5F80934F068630DD
:1032B00011F410924F06909117038091060389270D
:1032C0008093170310920803FF91EF91BF91AF9184
:1032D0009F918F917F916F915F914F913F912F912E
:1032E0000F900FBE0F901F90189590911B01911198
:1032F0002BC0811109C01092270110922801109251
:10330000290110922A0114C0803111F42D9801C0B6
:103310002D9A9091700191FF05C0803219F440E020
:1033200050E0BA01CB01BA010E948616811103C098
:103330000E94231707C08093B3008091B00080687B
:103340008093B000109225010895239A83E0809322
:10335000B00084E08093B100259A20916C013091F7
:103360006D0140916E0150916F0160916801709103
:10337000690180916A0190916B010E94BB359B01AC
:10338000AC0160E070E08EE793E40E94BB3660938E
:1033900002037093030380930403909305030C943A
:1033A00023176AE080E090E00E94660245E550E065
:1033B0006BE271E081E090E00C9488020F931F9320
:1033C000CF93C82F8B010E94A2272DE0C29FC0017E
:1033D00011244CE050E0B8019E5FCF911F910F91F6
:1033E0000C9488021F93CF93DF93182FEB018DE08D
:1033F000189FB00111247E5F4CE050E0CE010E9486
:103400002202892B59F48CE0FE0111928A95E9F78A
:10341000BE01812F0E94DE1980E001C081E0DF91B2
:10342000CF911F910895EF92FF920F931F93CF9327
:10343000DF93CDB7DEB72C970FB6F894DEBF0FBE83
:10344000CDBF182F80FFEAC08AE080935B0189E13D
:1034500080935E0110925C0110925D0181E0809387
:103460005F018AE097EDA3EABCE38093600190934B
:103470006101A0936201B09363018FE692E1A3E042
:10348000BBE38093640190936501A0936601B093C0
:10349000670180E090E0AAE7B4E48093680190932C
:1034A0006901A0936A01B0936B0110926C011092B4
:1034B0006D0110926E0110926F011092710180E007
:1034C00090E0A8ECB1E48093720190937301A09313
:1034D0007401B093750180E090E0AAEFB3E48093AB
:1034E000760190937701A0937801B09379012AEF48
:1034F00030E030937B0120937A0140E050E060E8B7
:103500007FE340937C0150937D0160937E01709333
:103510007F0120E42093700140E050E060E273E41A
:1035200040932B0150932C0160932D0170932E0139
:1035300040932F0150933001609331017093320119
:1035400040E050E068E475E4409333015093340167
:10355000609335017093360140E050E86BE375E409
:1035600040933701509338016093390170933A01C9
:1035700040933B0150933C0160933D0170933E01A9
:1035800080933F0190934001A0934101B093420189
:1035900080E098ECAFEAB8E4809343019093440153
:1035A000A0934501B0934601809347019093480151
:1035B000A0934901B0934A0180E098ECAFE2B8E4EF
:1035C00080934B0190934C01A0934D01B0934E0119
:1035D00080E090E0A8E4B3EC80934F019093500119
:1035E000A0935101B093520180E090E0A6E9B3ECC2
:1035F0008093530190935401A0935501B0935601C9
:1036000080E090E0A0EAB2EC8093570190935801DB
:10361000A0935901B0935A010E94D11911FF10C013
:10362000CE0101967C018CE0F70111928A95E9F7B1
:1036300000E0B701802F0E94DE190F5F0830C9F744
:1036400012FF14C060E080E093E00E94660260E038
:1036500081E093E00E94660260E081E593E00E94D1
:10366000660260E082E593E00E94660213FF0AC0F2
:1036700060E08EEA93E00E94660260E08FEA93E0E9
:103680000E9466022C960FB6F894DEBF0FBECDBF27
:10369000DF91CF911F910F91FF90EF9008951F92AE
:1036A0000F920FB60F9211242F933F934F935F9376
:1036B0006F937F938F939F93AF93BF93EF93FF93FA
:1036C000E091C600E13271F028F4E83179F40E940B
:1036D000402956C0EF3321F0EE3741F482E003C0B9
:1036E00081E001C088E00E94BC1D4AC0E7FF37C0EE
:1036F0008E2F90E0FC01E458F109ED31F10508F05E
:103700003FC0E659FF4F0C945E3A80E2ECCF8091C7
:103710001A0185FF35C080E4E6CF81E00DC082E06C
:103720000BC084E009C088E007C080E105C080E2EA
:1037300003C080E401C080E80E94A31D21C081E095
:103740000BC082E009C084E007C088E005C080E1CA
:1037500003C080E201C080E40E949A1D11C0A091C4
:10376000960281E08A0F813809F480E090919502F9
:10377000891731F0B0E0AC5EBD4FEC9380939602B8
:10378000FF91EF91BF91AF919F918F917F916F9139
:103790005F914F913F912F910F900FBE0F901F900F
:1037A00018951F920F920FB60F9211248F939F932B
:1037B000EF93FF9380910103E82FF0E0E856FD4F6F
:1037C00090819093C6008F5F893609F480E08093E2
:1037D000010390919702891305C08091C1008F7DEC
:1037E0008093C100FF91EF919F918F910F900FBE39
:1037F0000F901F901895E091970291E09E0F9936D7
:1038000031F490E004C02091050724FD0FC0209101
:1038100001032917C1F3F0E0E856FD4F8083909330
:1038200097028091C10080628093C1000895CF9378
:10383000C82F87E293E00E94FF268C2F0E94D92692
:10384000CF910C948510EF92FF920F931F93CF931B
:10385000DF9360915B0170E080E00E94A9106091AD
:103860005E0170E081E00E94A91060915C0170E04F
:1038700082E00E94A91060915D0170E083E00E94E7
:10388000A9106091700162FB662760F970E084E026
:103890000E94A9106091700166FB662760F970E0D4
:1038A00085E00E94A91080917001082E000C990BF0
:1038B000692F661F6627661F70E086E00E94A910C8
:1038C00060915F0170E08AE00E94A9104091600160
:1038D00050916101609162017091630123E08BE07E
:1038E0000E948910409164015091650160916601C8
:1038F0007091670123E08CE00E9489106091700153
:10390000617070E08DE00E94A9106091700165FB0C
:10391000662760F970E084E10E94A910609170014F
:1039200063FB662760F970E085E10E94A910609151
:1039300070016295617070E086E10E94A91060914B
:10394000710170E087E10E94A910409172015091CD
:103950007301609174017091750123E088E10E9408
:1039600089104091760150917701609178017091B2
:10397000790123E089E10E94891060917A017091B8
:103980007B018AE10E94A91040917C0150917D0148
:1039900060917E0170917F0123E08BE10E9489108C
:1039A000409168015091690160916A0170916B01C9
:1039B00020E08EE10E94891040916C0150916D01D0
:1039C00060916E0170916F0120E08FE10E9489107B
:1039D000609170016695617070E080E20E94A910AC
:1039E000D4E6F12C0BE211E083E0E82EED0ECD2FB2
:1039F00082E0F81691F0E3E0FE16E9F0F1E0FF1640
:103A000031F0F80140815181628173811AC0F8015F
:103A1000448555856685778514C020E030E041E611
:103A200055E4F801608D718D828D938D0E94BB36B7
:103A3000AB01BC0106C0F80144A155A166A177A164
:103A4000705823E08C2F0E9489100C5F1F4FCF5FAE
:103A5000EC12CECFD65FF394DC3821F6DF91CF9114
:103A60001F910F91FF90EF900895811104C08EE295
:103A700093E00C94FF260C94171CCF93DF93CFE0B8
:103A8000D7E08991882319F00E94FB1BFACFDF91C0
:103A9000CF910895CF93DF9321E5829FC001112438
:103AA000EC01DD5F40E550E0BE018FE097E00E9451
:103AB0002202892B69F410920F070E94A22740E589
:103AC00050E06FE077E0CE010E94880280E001C004
:103AD00081E0DF91CF910895CF93DF93C0E08C2FE9
:103AE0000E944A1D81110EC010920F078EE30E94A2
:103AF000FB1B0E943D1D8AE30E94FB1B87E00E9486
:103B0000171C12C080910F07882371F00E94D20207
:103B1000D82F8EE30E94FB1B0E943D1D8AE30E946A
:103B2000FB1B8D2F0E94351DCF5FC230C1F6DF9188
:103B3000CF9108959FB7F89420910807822B809326
:103B400008079FBF08959FB7F89420910707822B1D
:103B5000809307079FBF08959FB7F8948093060747
:103B60009FBF08952FB7F8949091050780958923FA
:103B7000809305072FBF08959FB7F89420910507FC
:103B8000822B809305079FBF08958F929F92AF92DB
:103B9000BF92CF92DF92EF92FF920F931F93CF933A
:103BA000DF93EB012BE2E22E21E0F22E8C016B0180
:103BB0008CE0C80ED11C6991799189919991F70196
:103BC00081909190A190B1907F010E946537A501ED
:103BD00094010E94BB36F801619371938193919394
:103BE0008F01CC15DD0539F7DF91CF911F910F9132
:103BF000FF90EF90DF90CF90BF90AF909F908F900D
:103C0000089596B1892F877049F0892F809581702A
:103C100091FF826092FD03C08460089580E0089562
:103C20001F920F920FB60F9211242F933F934F9331
:103C30005F936F937F938F939F93AF93BF93EF9314
:103C4000FF930E94011E882391F080FF03C00E9411
:103C500040290DC082FF04C080910507826005C025
:103C600081FF05C080910507886080930507FF915B
:103C7000EF91BF91AF919F918F917F916F915F91E4
:103C80004F913F912F910F900FBE0F901F9018955D
:103C90002F923F924F925F926F927F928F929F925C
:103CA000AF92BF92CF92DF92EF92FF920F931F934A
:103CB000CF93DF93CDB7DEB7EF970FB6F894DEBFA3
:103CC0000FBECDBF80911E0180FD36C790914F067B
:103CD00080910907981709F42FC780910C079091DC
:103CE0000D07892B09F015C310911E0112FF09C0A1
:103CF00080914E0622E3289FC0011124825D9C4FD3
:103D000002C00E94922790930D0780930C07209089
:103D10000C0730900D072114310409F40DC70091F0
:103D2000D606802F817000FF03C01092D606EAC02D
:103D30009091D5069F5F953009F0892F8093D50625
:103D4000E82EF12C32E13E9DF0013F9DF00D112453
:103D5000E558F94FF0930B07E0930A07D10150960D
:103D60009C915097908BE2E18E9FC001112420E03E
:103D700030E04D915D916D917D91F901E80FF91F52
:103D8000E558F94F689412F8440F551F661F771FC6
:103D90001694D1F740835183628373832C5F3F4F26
:103DA0002C30310531F722E12E9DF0012F9DF00DD1
:103DB00011249F012558394FF10184859585A685E9
:103DC000B78543E0880F991FAA1FBB1F4A95D1F7FB
:103DD000F90184879587A687B787D1011C966D91D5
:103DE0007D918D919C911F970E9463376093DB06B4
:103DF0007093DC068093DD069093DE06F101268D3C
:103E0000378D40A151A10E94BB369B01AC0160934C
:103E1000DF067093E0068093E1069093E20660E08F
:103E200070E080EA9FE30E94BB366093E3067093E4
:103E3000E4068093E5069093E6061092D70610926A
:103E4000D8061092D9061092DA0611FD02C003FFBF
:103E50001FC06091F4067091F5068091F60690916E
:103E6000F7066093EC067093ED068093EE06909350
:103E7000EF069B01AC010E941339D10152966D935C
:103E80007D938D939C935597077F0093D6060FC023
:103E9000F10162897389848995890E94B23960939E
:103EA000EC067093ED068093EE069093EF06F2E138
:103EB000FE9DC001FF9D900D11249C012558394F96
:103EC0007901D90151961C928091700181FF1AC02D
:103ED000F101818985FF16C022A533A544A555A50A
:103EE00060E070E080E89FE30E94BB3660930007CB
:103EF000709301078093020790930307E1E0D701D5
:103F00005196EC931092E8061092E9061092EA0698
:103F10001092EB06D1015A962D913D914D915C91F5
:103F20005D972D833E834F83588760E070E080E08B
:103F30009FE30E94BB364B015C01F101468C578C1C
:103F400060A071A011FF4BC0F2E0F093E706D10131
:103F50005296CD90DD90ED90FC905597A70196017B
:103F60000E9413399B01AC01C301B2010E94BB3511
:103F70004B015C0120E030E0A9010E94B13687FFCF
:103F80001DC02D813E814F815885CA01B9010E9413
:103F9000BC35A30192010E9413399B01AC01C701FA
:103FA000B6010E94BB350E94B2396093F40670934B
:103FB000F5068093F6069093F706A8C18092E8066E
:103FC0009092E906A092EA06B092EB061092F406EF
:103FD0001092F5061092F6061092F70697C110920D
:103FE000E7064092F8065092F9066092FA0670923F
:103FF000FB0612FF0CC01092F4061092F506109208
:10400000F6061092F706C12CD12C760124C0E0915F
:104010002D03EF5FE03109F4E0E080914E068E174A
:1040200059F0B2E3BE9FF0011124E25DFC4FC2885B
:10403000D388E488F58803C0C12CD12C7601C70150
:10404000B6010E94B2396093F4067093F50680932E
:10405000F6069093F706C1010E941F27698B7A8BA1
:104060008B8B9C8B9B01AC010E94133969877A87EB
:104070008B879C87D10152962D913D914D915C91FA
:10408000559729833A834B835C830E94B13687FF1F
:104090006CC029853A854B855C8569817A818B81E5
:1040A0009C810E94BB35A50194010E9413399B019C
:1040B000AC01C301B2010E94BB356093F806709356
:1040C000F9068093FA069093FB0620E030E0A90100
:1040D0000E94B13618163CF1B2E0B093E7062D818C
:1040E0003E814F815885CA01B9010E94BC35A301A8
:1040F00092010E9413399B01AC0169817A818B8105
:104100009C810E94BB350E94B2396093F406709383
:10411000F5068093F6069093F7068091D6068860A0
:104120008093D606F3C0A701960169857A858B85B1
:104130009C850E94BB35A50194010E9413396093B0
:10414000FC067093FD068093FE069093FF06298976
:104150003A894B895C892093F0063093F1064093AD
:10416000F2065093F30633E0B6C0A70196016981C9
:104170007A818B819C810E94BB35A50194010E94AC
:104180001339A30192010E94BC3520E030E040E0E9
:104190005FE30E9413396D877E878F87988B20E0BD
:1041A00030E0A9010E94D33818160CF097C02D8575
:1041B0003E854F855889C301B2010E94D338181635
:1041C0000CF088C0A701960169857A858B859C854E
:1041D0000E94BB35A50194010E9413399B01AC01DB
:1041E0006093FC067093FD068093FE069093FF0695
:1041F0006D857E858F8598890E94D3381816CCF5F9
:1042000089899A89AB89BC898093F0069093F106DD
:10421000A093F206B093F30629813A814B815C8129
:1042200069857A858B859C850E94B136811104C091
:1042300091E09093E7066AC029813A814B815C81C5
:1042400069857A858B859C850E94BB35A501940183
:104250000E9413399B01AC01C301B2010E94BB351E
:104260006093F8067093F9068093FA069093FB0624
:104270004DC02D853E854F8558892093F806309393
:10428000F9064093FA065093FB062093FC06309300
:10429000FD064093FE065093FF062D813E814F811F
:1042A0005885CA01B9010E94BC352D853E854F85D0
:1042B00058890E941339A70196010E94BC350E94BB
:1042C000B2396093F0067093F1068093F2069093F2
:1042D000F3061CC032E03093E70618C01092F806CF
:1042E0001092F9061092FA061092FB068091F406DD
:1042F0009091F506A091F606B091F7068093F0062E
:104300009093F106A093F206B093F3061860109311
:104310001E0180917A06482F50E05E834D8387E02E
:10432000849FF001859FF00D1124E05BF94F80918F
:10433000D5068483A0910C07B0910D07BFAFAEAF37
:104340005E96BC91BEA3EEADFFADF78DFFA3AEAD03
:10435000BFAD9096BC91B8A7EEADFFADF1A1F9A7A6
:104360002091E3063091E4064091E5065091E6067F
:104370006EA17FA18B2F9F2F0E94BB356AAB7BABB9
:104380008CAB9DAB20E030E0A9010E94B13687FFE5
:1043900004C01AAA1BAA1CAA1DAA2091F8062987E4
:1043A0003091F9063D874091FA06498B5091FB0602
:1043B0005D8B8091F0068A8F9091F1069B8FA09182
:1043C000F206AC8FB091F306BD8F6090EC06709052
:1043D000ED064090EE065090EF06E091FC06EAA74D
:1043E000F091FD06FBA72091FE062CA73091FF0659
:1043F0003DA74091E70649835091E8065EA780916A
:10440000E9068FA79091EA0698ABA091EB06A9ABBD
:10441000B091F406BFABE091F506E8AFF091F60677
:10442000F9AF2091F7062AAF2AA53BA54CA55DA5BB
:1044300069857D8589899D890E94B136811103C076
:1044400032E03EAB02C041E04EAB2EA03FA008A53B
:1044500019A58EE3C82E83ECD82E8EE2E82E89E3D0
:10446000F82E1E8A1F8A188E198ECE8EDF8EE8A235
:10447000F9A29981913009F4D4C008F472C0AEADAC
:10448000BFAD5A962D913D914D915C915D979330C2
:1044900009F0F9C0C701B6010E9413394B015C0154
:1044A00020E030E040E05FE30E9413399B01AC0163
:1044B000B301C2010E94BB35A70196010E941339C6
:1044C0006AA37BA38CA39DA39B01AC01B101C8018E
:1044D0000E94BB351B018C0129853D8549895D8979
:1044E0000E94B13687FD0BC020E030E0A9016AA12F
:1044F0007BA18CA19DA10E94B13618165CF1298583
:104500003D8549895D896EA17FA188A599A50E94F5
:10451000BB359B01AC010E94BC356B017C01930152
:10452000A2016A8D7B8D8C8D9D8D0E94BC359B0177
:10453000AC01C701B6010E94BB366B017C016A8CDD
:104540007B8C4C8C5D8C29843D8409891D89B1E06C
:10455000B983FFC0A5019401B301C2010E94BB351C
:104560005DC0EEADFFAD228D338D448D558DC701FD
:10457000B6010E9413394B015C0120E030E040E0BD
:104580005FE30E9413399301A2010E94BC35A70189
:1045900096010E9413399B01AC01B101C8010E9430
:1045A000BB351B018C019B01AC0169857D85898927
:1045B0009D890E94D33818165CF529853D85498967
:1045C0005D896EA17FA188A599A50E94BB359B013D
:1045D000AC010E94BC356B017C019301A2016A8D84
:1045E0007B8D8C8D9D8D0E94BC359B01AC01C701DC
:1045F000B6010E94BB366B017C016A8C7B8C4C8CB3
:104600005D8CFEA9F98329843D8409891D89A1C097
:10461000A5019401B301C2010E94BC353B012C01EC
:1046200098C02A8D3B8D4C8D5D8DC701B6010E94CF
:1046300013399B01AC01B101C8010E94BB355B017C
:104640004C019B01AC016AA57BA58CA59DA50E9490
:10465000D33818160CF07BC02AA53BA54CA55DA548
:10466000B101C8010E94BB352A8D3B8D4C8D5D8DFB
:104670000E94BB366B017C012AA43BA40CA51DA59E
:1046800022E0298366C0C701B6010E9413394B019D
:104690005C019301A2010E94B13687FF31C020E086
:1046A00030E040E05FE3C501B4010E9413399B0193
:1046B000AC01B301C2010E94BB35A70196010E9463
:1046C00013399B01AC01B101C8010E94BB356AA33B
:1046D0007BAF8CAF9DAF2EA53FA548A959A90E94DD
:1046E000D33818166CF4A5019401B301C2010E94DD
:1046F000BB353B012C012AA03BAC0CAD1DAD29C044
:104700002EA53FA548A959A9B101C8010E94BB35F2
:104710009B01AC010E94BC356B017C019301A2019D
:104720006FA978AD89AD9AAD0E94BC359B01AC01F3
:10473000C701B6010E94BB366B017C016FA878AC43
:1047400049AC5AAC2EA43FA408A919A902C015016E
:104750008401A70196016E897F89888D998D0E94B9
:10476000BC356E8B7F8B888F998F2E8D3F8D48A1A6
:1047700059A10E94B13687FF09C02E893F89488D13
:10478000598D6E8D7F8D88A199A11CC02AA93BA946
:104790004CA95DA9B101C8010E94D338181624F5AF
:1047A0002EE333EC4EE259E36E8D7F8D88A199A103
:1047B0000E94BC356E8F7F8F88A399A32E893F8975
:1047C000488D598D0E94BB356B017C019101A80178
:1047D0006EA57FA588A999A90E94B13687FD49CE0B
:1047E000B981B093E70603C0E981E093E706C3010E
:1047F000D2018093EC069093ED06A093EE06B09361
:10480000EF06E0910A07F0910B079189911104C01E
:1048100080911E0183FF3FC0AEADBFAD51968C911C
:104820005197807349F19E96CD90DD90ED90FC906C
:10483000D1979923D1F02091000730910107409141
:104840000207509103076091EC067091ED0680918C
:10485000EE069091EF060E9413399B01AC01C7014F
:10486000B6010E9413396B017C01C701B6010E9499
:104870008616809304070AC010922701109228011F
:104880001092290110922A011092040780911E01B2
:10489000877F80931E0147E02D813E81429FF0017A
:1048A000439FF00D1124E05BF94FFA87E98780916F
:1048B000040786832091DF063091E0064091E106EF
:1048C0005091E206B101C8010E9413392B013C014D
:1048D0000E949A366B017C016091DB067091DC06C8
:1048E0008091DD069091DE060E949A364B015C01B4
:1048F000A70196010E94BB350E94343769837A83F1
:104900008B839C83E981FA81A985BA85ED93FC9319
:10491000EF2B41F480911E0181FF04C081608093E0
:104920001E010AC12091D7063091D8064091D906C0
:104930005091DA066E897F89888D998D0E94BC35E9
:1049400069877A878B879C87A3019201C501B4018F
:104950000E94BB359B01AC0169857A858B859C855E
:104960000E94BB364B015C0120EC31EE44E65EE474
:104970000E9413390E949A360E943437603D37E016
:1049800073078105910560F4A7E04D815E81A49FC6
:10499000F001A59FF00D1124E05BF94F158253C083
:1049A000603ABFE07B078105910560F447E02D8107
:1049B0003E81429FF001439FF00D1124E05BF94FCF
:1049C00051E011C06034AFE17A078105910568F4C8
:1049D00047E02D813E81429FF001439FF00D11245D
:1049E000E05BF94F52E055830CC027E0AD81BE81FA
:1049F0002A9FF0012B9FF00D1124E05BF94F33E06B
:104A00003583A7E04D815E81A49FF001A59FF00D45
:104A10001124E05BF94F2581022E04C096958795FD
:104A2000779567950A94D2F749815A8102C0440F5D
:104A3000551F2A95E2F7518340836115710551E0B6
:104A40008507910568F427E0AD81BE812A9FF001BA
:104A50002B9FF00D1124E05BF94F7383628304C038
:104A60004FEF5FEF538342838091090780937A066B
:104A70008F5F863019F08093090702C010920907F2
:104A8000E0910C07F0910D07C101D801868F978F37
:104A9000A0A3B1A3C092DB06D092DC06E092DD06B3
:104AA000F092DE06A3019201C701B6010E94BB3558
:104AB000A50194010E9413396093D7067093D8061C
:104AC0008093D9069093DA062091E8063091E906A2
:104AD0004091EA065091EB06B101C8010E94B1363F
:104AE0008111F4C820E030E0A901B101C8010E94A1
:104AF000D33890911E01181614F092FF04C09160F3
:104B000090931E0119C010920D0710920C079091FE
:104B10002D0380914E06891709F4D8C881E0890FCA
:104B2000803109F480E020912C03921302C080931D
:104B30002C0380932D03CAC8EF960FB6F894DEBFFE
:104B40000FBECDBFDF91CF911F910F91FF90EF90DE
:104B5000DF90CF90BF90AF909F908F907F906F909D
:104B60005F904F903F902F900895CF93DF93C09127
:104B70000C07D0910D072097C9F08091D60681606F
:104B80008093D6066091EC067091ED068091EE065A
:104B90009091EF069B01AC010E9413396A8B7B8BCD
:104BA0008C8B9D8B10920D0710920C07DF91CF918B
:104BB0000895CF93DF930E94381680E3E5EDF6E089
:104BC000DF011D928A95E9F7C9E0D3E083E2FE0197
:104BD00011928A95E9F710920D0710920C07109226
:104BE0004F0610927A0681E080930907109208031D
:104BF0000E940716809107038F878BB1837E909167
:104C00000603892B8BB98BB18F7190910703892B88
:104C10008BB9DF91CF9108951092000190917001AE
:104C200097FD03C090E290930001882331F09091AA
:104C3000000180E289278093000108958F929F925E
:104C4000AF92BF92CF92DF92EF92FF920F931F939A
:104C5000CF93DF93CDB7DEB72D970FB6F894DEBFB5
:104C60000FBECDBF6B017C01042F20E030E0A90115
:104C70000E94B13687FF07C08DE20E94FB1BF7FA46
:104C8000F094F7F8F094102F123060F020E030E04C
:104C900048EC52E4C701B6010E9413396B017C0154
:104CA0001250F2CF00FF0AC020E030E040E251E4B1
:104CB000C701B6010E9413396B017C0120E030E08E
:104CC00040E05FE3C701B6010E94BC350E942D376A
:104CD00010E03AE0832E912CA12CB12C61157105C6
:104CE0008105910591F0EE24E394F12CEC0EFD1E6C
:104CF000E10EF11CA50194010E943C3A605DF701B0
:104D00006083B901CA011F5FE9CF80E3101748F43F
:104D1000E1E0F0E0EC0FFD1FE10FF11D80831F5F6C
:104D2000F5CF101313C0FE01E10FF11D80E3818365
:104D30001F5F0CC0101303C08EE20E94FB1BFE011C
:104D4000E10FF11D80810E94FB1B11501111F2CF68
:104D50002D960FB6F894DEBF0FBECDBFDF91CF9179
:104D60001F910F91FF90EF90DF90CF90BF90AF9089
:104D70009F908F9008952091700120FF08C02BE82C
:104D800032E441E25DE30E94133941E001C040E0BA
:104D90000C941E262091700120FF08C02BE832E4FD
:104DA00041E25DE30E94133944E001C043E00C940A
:104DB0001E26CF93DF93843630F06AE00E941C3ABF
:104DC000C0E3C90F03C0C0E08A3030F06AE00E943F
:104DD0001C3AD0E3D90F01C0D0E0805D0E94FB1BDC
:104DE000DD2319F08D2F0E94FB1BCC2329F08C2F83
:104DF000DF91CF910C94FB1BDF91CF910895CF935E
:104E0000DF93FC018491EF012196882321F00E9419
:104E1000FB1BFE01F7CFDF91CF910895E1E0F1E0B8
:104E2000A8EFB1E041915191619171914D935D93E2
:104E30006D937D9381E0ED30F807A1F70895BF925F
:104E4000CF92DF92EF92FF920F931F93CF93DF9356
:104E50007C01FC0102A513A5D4A5C5A5818980FF0D
:104E600018C06091220170E080E090E00E946537F8
:104E70002AE037ED43E25CE30E9413399B01AC0169
:104E8000B8018D2F9C2F0E9413398B01D82FC92F69
:104E90002DC082FD17C06091210170E080E090E09C
:104EA0000E9465372AE037ED43E25CE30E94133944
:104EB0009B01AC01B8018D2F9C2F0E9413398B01EF
:104EC000D82FC92FF701B6A0C7A0D0A4F1A42B2DCD
:104ED0003C2D4D2D5F2DB8018D2F9C2F0E94D33876
:104EE000181624F40B2D1C2DDD2DCF2D20E030E0E5
:104EF00040E85FE3B8018D2F9C2F0E94D33818162D
:104F000024F000E010E0D0E8CFE3B8018D2F9C2F13
:104F1000DF91CF911F910F91FF90EF90DF90CF9095
:104F2000BF90089580912D0390914E06981739F007
:104F300022E3829FC0011124825D9C4F089580E08E
:104F400090E008950E94FF150E94F31480911B01C8
:104F5000811108C00E949227892BB1F780911A0114
:104F6000883091F308958CE1E8EFF1E0DF011D92C4
:104F70008A95E9F710922D0310924E0681E08093F6
:104F80000E0710922C0308952F923F924F925F923A
:104F90006F927F928F929F92AF92BF92CF92DF9249
:104FA000EF92FF920F931F93CF93DF93C0914E0622
:104FB000C11101C0C0E1C150D0912C03DC1709F42C
:104FC0001DC1EC2EF12C22E3C29F80011124025D51
:104FD0001C4FF801A688B788C08CD18C628D738D68
:104FE000848D958D9B01AC010E94BC35F801268D06
:104FF000378D40A151A10E9413394B018C019B01B7
:10500000AC01B501C6010E94B13687FD02C0540152
:10501000680182E38E9DF0018F9DF00D1124E25D09
:10502000FC4FC501D601828B938BA48BB58BC1112C
:1050300001C0C0E1C150DC1761F022E32E9DC00128
:105040002F9D900D11249C01225D3C4F7901D2E3EC
:1050500033C080912D03D81360C00E94B5255DC078
:10506000AC2EB12CDA9DC001DB9D900D1124FC010A
:10507000E25DFC4F6F01C11101C0C0E1C1508091E0
:105080002D038C1302C00E94B525DA9D8001DB9DA3
:10509000100D1124025D1C4FF80186889788A08CA2
:1050A000B18CA501940162897389848995890E94D4
:1050B000B136811106C0760180912C03C813D0CF80
:1050C0002CC0F801628D738D848D958D9B01AC0190
:1050D0000E94BC35F801268D378D40A151A10E9458
:1050E0001339F70122893389448955890E94BC35D7
:1050F0002B013C019B01AC01C501B4010E94D338D6
:10510000F80118162CF4428A538A648A758AD3CF20
:10511000828A938AA48AB58ACECFD0912C03F2E3F7
:10512000DF9F80011124025D1C4FC1E0CD0FC03113
:1051300009F4C0E020904E0682E3382EC21509F42F
:105140005BC0CC2ED12C3C9CC0013D9C900D112409
:105150009C01225D3C4F7901F801428853886488A4
:105160007588F90182889388A488B588A50194017F
:10517000C301B2010E94B13687FF24C0F801628DDD
:10518000738D848D958D9B01AC010E94BC35F80117
:10519000268D378D40A151A10E941339A3019201A0
:1051A0000E94BC352B013C019B01AC01C501B4013F
:1051B0000E94D338181634F4F701428A538A648A5D
:1051C000758ADC2F3C9CF0013D9CF00D1124E25DC2
:1051D000FC4F26893789408D518D62897389848976
:1051E00095890E94B136811101C0DC2FCF5FC0319B
:1051F00009F4C0E08701A2CFD0932C03DF91CF91B7
:105200001F910F91FF90EF90DF90CF90BF90AF90E4
:105210009F908F907F906F905F904F903F902F90D6
:1052200008951F93CF93DF93142F20E030E040EADE
:1052300051E40E9413390E949A360E943437EB01E0
:105240002097D1F080911B01811116C0111103C06C
:105250000E94F31406C00E94C21080911C0181FDBF
:105260000BC02FEF80E792E0215080409040E1F7A3
:1052700000C000002197E4CFDF91CF911F910895E6
:105280008091050784FD1CC080E10E94BC1D0E9426
:105290002317439890911A01892F8C7221F48091E1
:1052A0001E01867069F0943031F4809106078111F7
:1052B00005C086E001C083E00E94AC1D0C94381646
:1052C00008958F929F92AF92BF92CF92DF92EF920A
:1052D000FF920F931F93CF93DF937C016B01DC014F
:1052E000CC91D0E0FE01E15FF84F80818D3229F44E
:1052F000EF012296818101E009C08B3219F0C05F75
:10530000D84F03C0EF012296818100E0912CF0E09C
:1053100010E020E030E0A9015E01E0EDE80FEA30A6
:10532000D0F4FF5FF93098F491101150A5E0B0E08F
:105330000E94643ADC01CB01880F991FAA1FBB1F92
:105340009C01AD012E0F311D411D511D0AC0911050
:1053500008C01F5F06C0EE3F41F4911006C09924BB
:1053600093942196D5018C91D7CFFF2309F44FC098
:10537000CA01B9010E9463374B015C0120E030E0B3
:10538000A9010E94B136882349F11F3F64F42AE045
:1053900037ED43E25CE3C501B4010E9413394B01D0
:1053A0005C011E5FF2CF1F3F59F42DEC3CEC4CEC3E
:1053B0005DE3C501B4010E9413394B015C010EC0CD
:1053C000112361F020E030E040E251E4C501B40176
:1053D0000E9413394B015C011150F2CF002351F0B0
:1053E000B7FAB094B7F8B094F60180829182A282A5
:1053F000B38206C0D6018D929D92AD92BC92139756
:10540000CF50D740C150F701C08381E001C080E098
:10541000DF91CF911F910F91FF90EF90DF90CF9090
:10542000BF90AF909F908F9008952F923F924F9290
:105430005F926F927F928F929F92AF92BF92CF9224
:10544000DF92EF92FF920F931F93CF93DF93CDB72D
:10545000DEB7A1970FB6F894DEBF0FBECDBF909117
:105460001B019111C4C18F8FFE013D9689E0DF01C0
:105470001D928A95E9F786E08D8BEBE2F1E0FA8FD9
:10548000E98F5F019E012A5E3F4F490100E010E075
:10549000C12CD12C76019F8D892F90E09E8F8D8F0E
:1054A000802F002321F0013021F090E103C094E02F
:1054B00001C098E0D4019D934D01ED8DFE8D02C099
:1054C000F595E7958A95E2F7E0FF1BC020E030E014
:1054D00040EC5FEBD50194966D917D918D919C91FF
:1054E00097970E941339362E472E582E692EA70102
:1054F00096010E94B13687FD04C0C32CD42CE52C44
:10550000F62C0F5F1F4FB4E0AB0EB11C033011053A
:1055100039F62090760130907701409078015090D4
:10552000790184E0A82EBB24B39461E071E0CE0140
:1055300001960E94C51D80917101682E712CFE019B
:10554000319621E031E03C8F2B8F39A328A3DE0177
:1055500056964D0180E090E000E010E0B701A60112
:1055600070582D8D3E8D082E02C0359527950A94D2
:10557000E2F720FF22C00F5FA8A1B9A11D921D92E2
:105580001D921C9213979301082E02C03595279502
:105590000A94E2F720FF03C0BB2019F007C0BB202C
:1055A00029F0C082D182E282F38204C04083518319
:1055B00062837383D4012C91122B0196BFEF8B1A57
:1055C0009B0A349628A139A12C5F3F4F39A328A309
:1055D0008330910531F6602F70E080E090E00E940A
:1055E00063370E94B2399B01AC0110932001C201C4
:1055F000B1010E9413396D877E878F87988BBE011A
:10560000635F7F4FCE0101960E94AA3234E030934F
:105610001E010E94481E0E946E16BB20E9F00E94E7
:105620000702FE01769620E030E090E06191462F7F
:10563000412359F0AC01022E02C0559547950A94BA
:10564000E2F740FF02C0609516232F5F3F4F2330E3
:10565000310561F7109320010E94481E80910507D3
:10566000847339F11091050714FF03C086E00E948E
:10567000AC1D15FF03C087E00E94AC1DB11007C030
:105680000E9407029F8D892339F088E003C012FF32
:1056900003C089E00E94AC1D80910607882329F091
:1056A0000E9440290E94F314A2C084E00E94B21D0F
:1056B00004C0812F8C7109F0B0CF0E94D9250091D0
:1056C0007A0110917B010115110549F0AFE9BFE0A6
:1056D0001197F1F700C0000001501109F4CFB1E0BB
:1056E000BB26C9F020E030E040EA50E460917C0144
:1056F00070917D0180917E0190917F010E9413390C
:105700006B017C0120907201309073014090740114
:105710005090750110C0C0907C01D0907D01E09048
:105720007E01F0907F0120907601309077014090CB
:10573000780150907901AA94A110F7CEE090710100
:10574000F12C80907C0190907D01A0907E01B09022
:105750007F012401350177FA709477F870948D8D6C
:105760009E8D002E02C0959587950A94E2F780FFE2
:105770002BC0C701002E02C0959587950A94E2F7C9
:10578000E98DFA8D80FF0FC024A135A146A157A154
:10579000C501B4010E94BC35A98DBA8D2D913D91F2
:1057A0004D915C9106C02081318142815381C301BA
:1057B000B2010E9413390E94E038AB8DBC8D6D930D
:1057C0007D938D939C9313970F5F1F4FEB8DFC8DF3
:1057D0003496FC8FEB8F298D3A8D2C5F3F4F3A8F9B
:1057E000298F0330110509F0BACF10921E01A1963E
:1057F0000FB6F894DEBF0FBECDBFDF91CF911F91E2
:105800000F91FF90EF90DF90CF90BF90AF909F905F
:105810008F907F906F905F904F903F902F90089562
:10582000CF93DF93CDB7DEB761970FB6F894DEBFA5
:105830000FBECDBF8091C00082608093C0001092E7
:10584000C50080E18093C4008091C1008869809385
:10585000C10080E090E00E94D0018A3009F02CC5A0
:1058600045E550E061E070E08BE291E00E942202A9
:10587000892B09F421C58AB18C618AB9209A8AB131
:10588000806E8AB9809181008F7E809381008091A3
:105890008100886080938100809180008C7F80935C
:1058A0008000809180008F708093800080916E00D6
:1058B000887F80936E0014BC15BC80916E0081605F
:1058C00080936E0087B1887F87B988B1876088B977
:1058D00080916C00876080936C008091680082608A
:1058E000809368008CE0E1E0F1E0DF011D928A9591
:1058F000E9F7789410921A018091700184FF03C037
:1059000081E080931A01AAE12A2EA1E03A2E99247F
:10591000939480911A0191E1F10111929A95E9F71E
:1059200080931A0184E68093210180932201809361
:1059300023018CE0ADE0B1E01D928A95E9F7109269
:10594000190110920507109206071092070710928E
:10595000080780919602809395028FE3E0E8F1E0DA
:1059600011928A95E9F763EA71E080E00E94F219EA
:10597000811103C087E00E94171C0E94A5193B9A61
:1059800043980E94B9013D98459A80E00E940C26F8
:105990000E94B3270E94D9250E940E270E941C0254
:1059A0008AE591E00E94FF268091700183FF10C07C
:1059B0000E940702882361F090921A0185EB92E021
:1059C0000E94FF2684E592E00E94FF260E94BD10FF
:1059D00080911A01817899F085EB92E00E94FF2670
:1059E0008FE892E00E94FF260E94BD1090921A015B
:1059F00010E000E0E2E0EE2EF4E08F2E29C01092DD
:105A00001A010E946C1DF4CFE92FF0E0EC5EFD4F0F
:105A100080819F5F913809F490E0909395028F3FC9
:105A2000E9F08A3021F50E94F31480911B01811165
:105A300070CFE12FF0E0E15FF84F1082F02FF170AE
:105A4000FF2E00FF18C08BE00E94171C10E000E042
:105A500090919502809196029813D6CF0E94FF15DF
:105A60000E94F31480911B01882391F352CF8D3053
:105A700009F0FCC3D8CF80910F07882309F4F3C342
:105A8000843209F0E8C3998A80911007833409F1C0
:105A900034F4882361F0843209F006C11AC08A34D4
:105AA00059F08835B1F0873409F0FEC012C084ED9A
:105AB00091E00E94FF26CDC380911A018F7D09F0ED
:105AC000B8C3809111078D3309F0BBC30E94D20285
:105AD000B3C3909111079111B4C3833409F4B2C0D8
