:100000000C949D010C94AF010C94AF010C94DB0196
:100010000C948B160C94AF010C94AF010C94AF01AF
:100020000C94AF010C94AF010C94AF010C943C1FE5
:100030000C94AF010C94AF010C94AF010C94AF0180
:100040000C94BD1E0C94AF010C942A260C94AC2683
:100050000C94AF010C94AF010C94AF010C94AF0160
:100060000C94AF010C94AF015B2F612F642F672FAD
:100070006C2F762F7E2F0430043004308B2F8E2F80
:10008000972FA02F043004300430043004300430A3
:10009000AC2FB62FC22FCA2FCD2FD62FDF2FE52F93
:1000A00004300430EE2FF72F0F30A9042410241051
:1000B000B304BE04C904D4042410D8042410E604F4
:1000C0002410F004FA042B05241024102410040535
:1000D00011051E05602662269B269B269B269B26D5
:1000E0009B269B269B269B269B269B2668266A266C
:1000F0006C266E2670267226742676269B267A2615
:100100007C267E268026822684269B268626084AF2
:10011000D73B3BCE016E84BCBFFDC12F3D6C74311B
:100120009ABD56833DDA3D00C77F11BED9E4BB4C72
:100130003E916BAAAABE000000803F05A84CCDB23C
:10014000D44EB93836A9020C50B9918688083CA61D
:10015000AAAA2ABE000000803F000D0A4772626C06
:1001600020666F7220434E433030315B506F7765AD
:1001700072656420627920534D4152544255494C76
:10018000445D0D0A00244E005B4F50543A005B560C
:1001900045523A312E316520666F7220534D4152DF
:1001A000544255494C442E32303136313231393A8D
:1001B000005B544C4F3A005B4739323A0033300011
:1001C0003238005B4700204700204D0020460020C9
:1001D000540033382E005B47433A47005B484C508D
:1001E0003A242420242320244720244920244E205C
:1001F00024783D76616C20244E783D6C696E6520D4
:10020000244A3D6C696E652024534C5020244320C1
:100210002458202448207E2021203F206374726CC3
:100220002D785D0D0A00536C656570696E6700522C
:100230006573746F72696E67207370696E646C6544
:1002400000526573746F72696E67206465666175CC
:100250006C74730050676D20456E6400436865637D
:100260006B204C696D69747300436865636B20444F
:100270006F6F720044697361626C656400456E6102
:10028000626C65640043617574696F6E3A20556EE7
:100290006C6F636B656400272448277C27245827EC
:1002A00020746F20756E6C6F636B0052657365749C
:1002B00020746F20636F6E74696E7565005B4D53BB
:1002C000473A00414C41524D3A007C413A007C4F44
:1002D000763A007C57434F3A007C506E3A007C4699
:1002E0003A007C42663A007C57506F733A007C4D6E
:1002F000506F733A00536C65657000446F6F723ACB
:1003000000436865636B00416C61726D00486F6DFE
:1003100065004A6F6700486F6C643A0052756E0062
:1003200049646C65006F6B0D0A000D0A005B50524A
:10033000423A006572726F723A0011241FBECFEF0D
:10034000D8E0DEBFCDBF27E0A0E0B1E001C01D9244
:10035000A530B207E1F70E941A2B0C9450390C9487
:100360000000EBE6F0E08081817F8083E8E6F0E04A
:1003700080818E7F8083089584B1817F84B985B127
:100380008E6085B980916C0183FF0BC080916B00FA
:100390008E6080936B00809168008160809368001C
:1003A00008950C94B101F999FECF92BD81BD81E011
:1003B0008FBB80B508951F920F920FB60F92112434
:1003C0002F933F934F935F936F937F938F939F935D
:1003D000AF93BF93EF93FF9380911A01813049F05F
:1003E00080911F05811105C00E94AE2481E00E940A
:1003F0002716FF91EF91BF91AF919F918F917F91C0
:100400006F915F914F913F912F910F900FBE0F9081
:100410001F90189593B19E7080916C0186FD02C06B
:100420008EE09827992349F091FB882780F992FD67
:100430008260987019F08460089580E0089561E00A
:1004400071E083E991E00C9440169F92AF92BF92C5
:10045000CF92DF92EF92FF920F931F93CF93DF9390
:100460005B018A017C01E40EF51EEC01912C6B010D
:10047000C81AD90AC6018C0F9D1FCE15DF0589F059
:100480000E94D301911008C0292D990C330B232F02
:10049000221F2227221F01C021E0982E920E89934D
:1004A000E9CFC501800F911F0E94D30121E030E008
:1004B000981611F020E030E0C901DF91CF911F9133
:1004C0000F91FF90EF90DF90CF90BF90AF909F90F3
:1004D0000895F894F999FECF92BD81BD81E08FBB5C
:1004E00080B58627482F082E000C550B262F30E0AC
:1004F00024233523232B39F06F3F19F060BD84E0AE
:1005000006C084E104C0882321F060BD84E28FBB73
:10051000F99A789408959F92AF92BF92CF92DF920A
:10052000EF92FF920F931F93CF93DF935C018A01A9
:100530007B01E40EF51EEB01912C6C01C61AD70A63
:10054000CE018C0D9D1DCE15DF0589F0911008C0E0
:10055000292D990C330B232F221F2227221F01C084
:1005600021E06991922E960E0E946902E9CF692DD1
:10057000C501800F911FDF91CF911F910F91FF90C7
:10058000EF90DF90CF90BF90AF909F900C94690256
:1005900090911B01911108C0811102C0439802C0C3
:1005A00086FD439A1092250108952F923F924F9213
:1005B0005F926F927F928F929F92AF92BF92CF92F3
:1005C000DF92EF92FF920F931F93CF93DF93CDB7FC
:1005D000DEB7CA54D1090FB6F894DEBF0FBECDBF47
:1005E00089E3EBEBF1E0DF011D928A95E9F78AE000
:1005F000ECE7F1E0ACEBB1E001900D928A95E1F708
:100600008091B506843211F00C94451081E08093FE
:10061000BC011092BD0183E08A8FB1E0BBA3212C05
:10062000312C18AA1FA610E01B8E1F8EEE24E39417
:10063000F12C3AE0A32EB12C41E6842E43E0942E17
:100640008A8DE82FF0E0EB54F94FD080DD2009F4DB
:1006500027C29FEB9D0D9A3110F00C9416108F5FFE
:100660008A8FBE016A5E7F4FCE014A960E946B2838
:10067000882311F40C9418104E885F88688C798C4C
:10068000C301B2010E94BB380E94F935062F70E009
:1006900080E090E00E942A369B01AC01C301B201C8
:1006A0000E94803420E030E048EC52E40E94D837C9
:1006B0000E9445380E94F935CB01E7E4DE1629F0A7
:1006C000FDE4DF1609F4EAC033C1083209F4C6C0FC
:1006D00020F5043168F4013108F08AC0043009F4CF
:1006E00052C008F464C00A3009F445C00C942410C8
:1006F0000C3109F440C050F4063110F00C94241071
:1007000025E1201B2093BE0126E0ADC00E3199F1FA
:10071000063209F44CC00C9424100D3309F498C02F
:10072000A8F4053381F140F40B3209F47AC00133A7
:1007300009F477C00C9424100C3310F00C9424109E
:100740006AEC600F6093C20129E08DC00C3538F46B
:100750000A3508F053C0003581F10C9424100C3593
:1007600051F00F3510F00C9424102EE5201B20932F
:10077000BD0125E078C0009731F42F8D21110C9434
:100780001A1031E03F8F0093BB01202F2D7F2C31B9
:1007900019F00C3509F064C0009721F00A9711F0A8
:1007A0000C942410600F6093BB0120E061C04F8D5A
:1007B00041110C941A10A2E0AF8F0093BC010632D5
:1007C00009F050C08431910559F08E31910541F006
:1007D0008832910529F08233910511F00C94241090
:1007E000B5010E94ED3866576093BC0121E040C01E
:1007F0006FEE600F6093C00122E035C0892B31F4A9
:1008000066EA600F6093BF0123E032C06A30710571
:1008100011F00C9424100A3511F40C94241024E0E7
:1008200027C0BF8DB1110C941A10013331F410920E
:10083000C10128E0E3E0EF8F1BC00A9711F00C9490
:100840002410F1E0F093C10128E033E03F8F10C0A5
:10085000892B11F00C9424102AE00AC027E003C071
:1008600020E001C021E0892B19F087E10C944C10A5
:10087000C70102C0880F991F2A95E2F72FA538A952
:1008800028233923232B19F085E10C944C10AFA5B4
:10089000B8A9A82BB92BB8ABAFA7D2CE892B29F713
:1008A000063018F4033058F016C0083010F40C94D9
:1008B00024100A30F0F00E3159F00C94241000236B
:1008C00019F0013001F104C0B3E0B093C3011BC0C3
:1008D0000093C30118C0043021F0053031F080E1ED
:1008E00001C080E28093C50102C01092C5018CE076
:1008F0000BC0093021F080E48093C40102C0109243
:10090000C4018DE001C08BE0F70102C0EE0FFF1FB4
:100910008A95E2F72FA538A92E233F23232B09F030
:10092000B3CF2FA538A92E2B3F2B38AB2FA788CEBE
:100930008D2DDD0C990BAA0BBB0BFC01E654F109C4
:10094000E531F10510F00C942410EB5AFF4F0C9494
:1009500023394092C6015092C7016092C80170923B
:10096000C90180E079C04092CA015092CB016092E7
:10097000CC017092CD01116081E06EC04092CE0139
:100980005092CF016092D0017092D101126082E04A
:1009900063C04092D2015092D3016092D401709210
:1009A000D501146083E058C00093D60184E054C0A0
:1009B000C301B2010E94F2356093D7017093D80150
:1009C0008093D9019093DA0185E046C04092DB0123
:1009D0005092DC016092DD017092DE0186E03CC045
:1009E0004092DF015092E0016092E1017092E201D9
:1009F00087E032C04092E3015092E4016092E50149
:100A00007092E60188E028C04092E8015092E90126
:100A10006092EA017092EB013B8D31603B8F8AE07E
:100A20001BC04092EC015092ED016092EE01709279
:100A3000EF014B8D42604B8F8BE00EC04092F00176
:100A40005092F1016092F2017092F3018B8D8460FB
:100A50008B8F8CE001C089E06701082E02C0CC0CAE
:100A6000DD1C0A94E2F7960122213321232B11F099
:100A70000C941C10D40102C0B595A7958A95E2F795
:100A8000A0FF0BC020E030E0A901C301B2010E9429
:100A9000763587FF02C00C941E102C283D28D0CD3F
:100AA000BB8DBB2329F0EF8DE11102C0F2E0FF8F77
:100AB00025FE0FC08091D7019091D801A091D90156
:100AC000B091DA0181389649A849B10514F00C9427
:100AD00020103BA1332329F020FC02C00C942A10E3
:100AE00012C08091BD01813041F44F8D4230B1F58B
:100AF00020FC02C00C942A1031C080917D0181112C
:100B00002DC020FE1BC08091BE01813039F523E34A
:100B100033E34BEC51E46091C6017091C7018091C1
:100B2000C8019091C9010E94D8376093C6017093A3
:100B3000C7018093C8019093C90110C080918A01B8
:100B400090918B01A0918C01B0918D018093C60191
:100B50009093C701A093C801B093C90130FC10C0A5
:100B60008091860190918701A0918801B0918901BF
:100B70008093E3019093E401A093E501B093E60133
:100B80008091BB01843039F426FC03C08CE10C94C5
:100B90004C10E89426F88091C001882369F08130D8
:100BA00029F48FAF19AE92E09FAB0BC01FAEA2E04D
:100BB000A9AFB1E0BFAB05C0E2E0EFAFF1E0F9AF44
:100BC0001FAA8091BE01813021F02F8D2330C9F5FD
:100BD0002FC09BEBC92E91E0D92EE12CF12C3B8D3F
:100BE000A32EB12CC5010E2C02C0959587950A94B1
:100BF000E2F780FF12C023E333E34BEC51E4D6016C
:100C00009D966D917D918D919C91D0970E94D83742
:100C1000F60165A776A787A790ABFFEFEF1AFF0A4B
:100C200024E0C20ED11C33E0E316F104D9F6CDCF97
:100C30008091C101813029F44B8D443011F00C9426
:100C400022108CE0EFE9F1E0DE01119601900D92A7
:100C50008A95E1F78FA598A991FD08C00091BB0185
:100C60000A30C9F00C3509F4B3C01EC18091C2012D
:100C7000873018F08DE10C944C1090918201891707
:100C800069F3BE016F5F7F4F0E949A21882311F4A0
:100C90000C943810E3CF9B8D911103C08AE10C9422
:100CA0004C10C10180759927892B09F46FCF609191
:100CB000DB017091DC018091DD019091DE010E94E9
:100CC000BB380E94F9356730A8F68091D60184318F
:100CD00041F0823011F00C94241027FE02C00C94D5
:100CE0002410AFEA2A22662319F0615069A703C0D5
:100CF000B091C201B9A76AEC71E089A50E949A215E
:100D0000882311F40C9438100091D6014090B7015B
:100D10005090B8016090B9017090BA01BBEBEB2E16
:100D2000B1E0FB2E8CE7A82E81E0B82EC12CD12C8F
:100D3000EB8D8E2E912CC4010C2C02C095958795BD
:100D40000A94E2F780FF35C0043151F5D5019F9632
:100D50002D913D914D915C91D29757966D917D91DA
:100D60008D919C915A970E948034F70125A536A554
:100D700047A550A90E948034D7011F966D937D939B
:100D80008D939C935297B2E0CB1213C0A3019201B2
:100D90000E948034F7016787708B818B928B09C02A
:100DA000F70185A596A5A7A5B0A98787908BA18BEC
:100DB000B28BFFEFCF1ADF0A24E0E20EF11C34E021
:100DC000A30EB11C43E0C416D10409F0B4CF3FC157
:100DD0008B8D882309F462CF4090B7015090B80101
:100DE0006090B9017090BA01FCE78F2EF1E09F2E60
:100DF000DE0111967D01ABEBCA2EA1E0DA2EA12C0B
:100E0000B12CE82FF0E0F8A7EFA38FA198A50A2C4A
:100E100002C0959587950A94E2F780FF29C0D70113
:100E20002D913D914D915C91F4016789708D818D7B
:100E3000928D0E948034D6019D962D913D914D91C9
:100E40005C91D0970E948034F60165A776A787A7AA
:100E500090ABF2E0AF1216C0A30192010E94803461
:100E6000D6019D966D937D938D939C93D0970AC0E8
:100E7000F40187A590A9A1A9B2A9F60185A796A713
:100E8000A7A7B0ABFFEFAF1ABF0A24E0820E911CF8
:100E900034E0E30EF11C44E0C40ED11C83E0A8163C
:100EA000B10409F0B2CFD2C09F8D933069F40E31F6
:100EB00009F494C0053309F4C3C00C3109F0C6C06D
:100EC0006AEC71E086E08DC0AB8DAA2381F3B0910E
:100ED000BF01BFA34090B7015090B8016090B90125
:100EE0007090BA017CE7A72E71E0B72EEBEBEE2EE7
:100EF000E1E0FE2EFE0131964F01C12CD12C2A2FAC
:100F000030E03AA729A789A59AA50C2C02C095958F
:100F100087950A94E2F780FD0BC0F5018789908DD3
:100F2000A18DB28DF70185A796A7A7A7B0AB44C046
:100F3000053309F441C0FFA1F1112BC0D5019F96E3
:100F40002D913D914D915C91D297F4016081718119
:100F5000828193810E948134D7019D962D913D918C
:100F60004D915C91D0970E948134F70165A776A7D7
:100F700087A790ABF2E0CF121FC0A30192010E949D
:100F80008134D7019D966D937D938D939C93D097DB
:100F900013C0F5012789308D418D528DD7019D9663
:100FA0006D917D918D919C91D0970E948134F70134
:100FB00065A776A787A790ABFFEFCF1ADF0A24E0DB
:100FC000A20EB11C34E0E30EF11C44E0840E911C2F
:100FD00083E0C816D10409F096CF69CF6AEC71E0BE
:100FE00087E00E949A21882311F40C9438109B8D7D
:100FF000911103C019A61F8E2AC0ACE7B1E0EBEB3C
:10100000F1E080E090E04B8D242F30E0A901082E24
:1010100002C0559547950A94E2F740FD0AC05796DD
:101020004D915D916D917C915A974787508B618B63
:10103000728B0196149634968330910539F706C069
:101040008091BC01823010F00C94261019A680917A
:10105000BC018FA3803529F49B8D91110C9428102D
:1010600079C2AF8DA23009F075C2BFA1B11104C021
:10107000EB8DE1116FC22AC020E030E0A901609140
:10108000C6017091C7018091C8019091C9010E9469
:101090007635882309F4DEC7FFA1FC3809F444C281
:1010A00040F4F230A9F0F330B1F0F13009F052C25F
:1010B0000AC02FA12E3809F437C208F432C22F38E3
:1010C00009F42FC247C23B8D311144C21F8E42C268
:1010D0004BA144604BA38B8D882309F4DFCDBFA9BE
:1010E000AB2FB0E0BCABABABF9ADEF2FF0E0FCAF9A
:1010F000EBAF81E090E07C010FA802C0EE0CFF1C7A
:101100000A94E2F709AC02C0880F991F0A94E2F72B
:10111000E82AF92A2B8D822F90E08E219F21892B9E
:1011200009F49AC7CD01880F991F880F991FFC01F8
:10113000E554FE4FDC01A458BE4F57962D913D91CA
:101140004D915C915A9765A576A587A590A90E94B7
:1011500080342B013C018BAD9CAD880F991F880F0B
:10116000991FFC01E554FE4FDC01A458BE4F579671
:101170002D913D914D915C915A9765A576A587A5D6
:1011800090A90E9480344B015C01610130E8C322C8
:10119000DD2427FEF6C0E89427F84CE050E068EE26
:1011A00071E083E991E00E944339892B11F481E2D7
:1011B00073C78091BE018130B1F423E333E34BEC7C
:1011C00051E46091DF017091E0018091E101909123
:1011D000E2010E94D8376093DF017093E0018093B1
:1011E000E1019093E2018091DF019091E001A091F3
:1011F000E101B091E2018BA79CA7ADA7BEA7A30117
:101200009201C301B2010E94D83727966CAF7DAF1F
:101210008EAF9FAF2797A5019401C501B4010E942D
:10122000D8372B966CAF7DAF8EAF9FAF2B9720E05A
:1012300030E040E850E46BA57CA58DA59EA50E94FA
:10124000D8372BA53CA54DA55EA50E94D83727967B
:101250002CAD3DAD4EAD5FAD27970E9480342B96EF
:101260002CAD3DAD4EAD5FAD2B970E9480346B0130
:101270007C0120E030E0A9010E94763587FDEEC6B2
:10128000C701B6010E9477386B017C012B962CAD0B
:101290003DAD4EAD5FAD2B9727966CAD7DAD8EAD60
:1012A0009FAD27970E9481340E9477389B01AC0143
:1012B000C701B60190580E9480356B017C019FA147
:1012C000933021F4F7FAF094F7F8F09420E030E04E
:1012D000A9016BA57CA58DA59EA50E94763587FFEB
:1012E00011C0F7FAF094F7F8F0948BA59CA5ADA582
:1012F000BEA5B0588093DF019093E001A093E10177
:10130000B093E2010BA91CA9000F111F000F111FC0
:1013100001541E4FA7019601C501B4010E94D837A0
:101320009B01AC01C301B2010E94803420E030E097
:1013300040E05FE30E94D837D8011B966D937D9300
:101340008D939C931E970BAD1CAD000F111F000FCA
:10135000111F01541E4FA7019601C301B2010E9443
:10136000D837A50194010E94813420E030E040E0AC
:101370005FE30E94D837F801638774878587968773
:10138000E9C0212F30E03CA72BA7E222F322EF286F
:1013900009F466C631EF23228091BE01813009F441
:1013A0007BC0EBA9FCA9EE0FFF1FEE0FFF1FE1545E
:1013B000FE4FC384D484E584F684A7019601C3015B
:1013C000B2010E9480342B013C01EBADFCADEE0F6D
:1013D000FF1FEE0FFF1FE154FE4F83859485A58507
:1013E000B6858BA79CA7ADA7BEA79C01AD01C50183
:1013F000B4010E9480344B015C01A3019201C3013E
:10140000B2010E94D8372B013C01A5019401C5010E
:10141000B4010E94D8379B01AC01C301B2010E9404
:1014200081340E9477384B015C01A7019601C70106
:10143000B6010E94D8376B017C012BA53CA54DA5B8
:101440005EA5CA01B9010E94D8379B01AC01C70152
:10145000B6010E9481340E9477386B017C01609351
:10146000DF017093E0018093E1019093E2019B0121
:10147000AC01C501B4010E9480344B015C01E894C9
:10148000B7F82AE037ED43EA5BE3C501B4010E94F7
:10149000983718164CF15EC00BEB11E08BA59CA59C
:1014A0000C2C02C0959587950A94E2F780FF12C034
:1014B00023E333E34BEC51E4D8011F966D917D910A
:1014C0008D919C9152970E94D837F8016787708B55
:1014D000818B928BFFEFCF1ADF0A0C5F1F4F23E047
:1014E000C216D104D9F65DCF20E030E040E05FE3E2
:1014F000C501B4010E94983718160CF458CE2FE697
:1015000032E143E85AE3C701B6010E94D8379B0194
:10151000AC01C501B4010E94983718160CF447CEEF
:1015200019C03BA130613BA38FA18E58823018F4C3
:101530004BA148604BA38B8D882309F4AFCB4CE0C3
:1015400050E068EE71E083E991E00E944339892B15
:1015500009F42DCE2BA121709BA190FF03C0C101E6
:101560008E7D03C0C1018E7D9C7FAF8DA111937EC6
:10157000892B09F077C58E01035F1F4F89E0F801C1
:1015800011928A95E9F7222309F44BC08FA598A9F7
:10159000867B892B09F068C58091BB01853311F0EA
:1015A000811162C58091860190918701A091880187
:1015B000B0918901898B9A8BAB8BBC8B9091850103
:1015C00080918401892B4091C6015091C70160919F
:1015D000C8017091C9014D875E876F87788B8460E1
:1015E0008D8B80916C0185FF06C088EE91E00E9492
:1015F000533081113BC5B80188EE91E00E9405345B
:1016000080911A01811136C50E941123892B09F49A
:1016100031C580E280931A010E94C3160E946D2199
:1016200029C580916C01F090850181FF26C08FA1B2
:101630008150833018F0FBA1F064FBA32B8D222393
:1016400039F03F8D323021F44BA140684BA315C0D7
:1016500080E1F81212C080917C0181509BA19074AE
:10166000833030F4992349F09BA190629BA305C07D
:10167000911103C0ABA1A062ABA38091D70190915F
:10168000D801A091D901B091DA0180938F01909394
:101690009001A0939101B09392018091BD0180933C
:1016A0007D01882311F088E08D8B8091C601909197
:1016B000C701A091C801B091C90180938A0190939C
:1016C0008B01A0938C01B0938D018D879E87AF878E
:1016D000B88B2091E3013091E4014091E5015091F4
:1016E000E601609186017091870180918801909157
:1016F00089010E947635811103C0BBA1B5FF1BC0D3
:10170000FF2049F080911A01823029F00E9498153B
:101710008F2D0E9485218091E3019091E401A09199
:10172000E501B091E6018093860190938701A09333
:101730008801B0938901EBA1E6FD0CC08091860180
:1017400090918701A0918801B0918901898B9A8B32
:10175000AB8BBC8B8091E70180938E01F090C5012B
:10176000809185018F1569F080911A01823029F0EE
:101770000E9498158F2D0E9485218091C50180932C
:1017800085019D8980918501892B8D8BF090C40105
:10179000809184018F15A9F080911A01823029F07F
:1017A0000E9498158F2D0E94C8028091C40181115A
:1017B00003C01092840105C090918401892B80930D
:1017C00084019D8980918401892B8D8B8091BB013F
:1017D000843099F4C090DB01D090DC01E090DD0111
:1017E000F090DE0180911A01823039F00E94981544
:1017F00040E0C701B6010E947F248091C001809320
:1018000080018091BE0180937E01FF8DF33071F5E0
:101810008091C10180938101811108C01092F00173
:101820001092F1011092F2011092F301C090F001B8
:10183000D090F101E090F201F090F301A701960140
:101840006091B7017091B8018091B9019091BA018E
:101850000E947635882351F0C092B701D092B8012A
:10186000E092B901F092BA010E948E308091C201DB
:1018700090918201981769F0809382018CE0FE01BB
:101880003196AFE9B1E001900D928A95E1F70E949F
:101890008E308091BF0180937F018091BB018632A1
:1018A000F1F138F48C3109F18E31F9F08A3069F0B8
:1018B0004FC08C35D1F1863609F441C0883209F029
:1018C00047C063E971E087E02DC06AEC71E089A54B
:1018D0000E94DB248091820129A5281339C08CE065
:1018E000EAECF1E0AFE9B1E025C08D8981608D8B34
:1018F0003F8D332329F0B80188EE91E00E94053432
:10190000B8018AEC91E00E9405348CE0EAECF1E049
:10191000A3E9B1E001900D928A95E1F719C063E95E
:1019200071E086E00E94DB2413C08CE0E8EEF1E079
:10193000ABEAB1E001900D928A95E1F707C08CE027
:10194000EBEAF1E0DF011D928A95E9F70E948E3003
:101950008091BC0180937C01803509F41CC3BF8D4C
:10196000B23009F018C3813021F4BE01635F7F4FAC
:1019700006C0811109C08D8981608D8BB80188EE08
:1019800091E00E940534FEC28250823008F093C27A
:101990008091DF019091E001A091E101B091E2011D
:1019A0008F8F98A3A9A3BAA3AFA994E0A99F7001B0
:1019B0001124F701ED56FE4FF8A7EFA39701265328
:1019C0003E4F3AA729A7D9014D905D906D907C902C
:1019D0002081318142815381C301B2010E9481344F
:1019E0006FA778AB89AB9AABE9ADB4E0EB9F800110
:1019F000112498012D563E4F38AF2FABC8018653A6
:101A00009E4F9AAF89AFDC018D909D90AD90BC90B8
:101A1000F9012081318142815381C501B4010E94C5
:101A200081346BA77CA78DA79EA777FA709477F86F
:101A30007094D501C401B0588B8F9C8FAD8FBE8F31
:101A4000F701E851FE4F2FA538A949A95AA960818D
:101A50007181828193810E9480346B017C01F80145
:101A6000E851FE4F2BA53CA54DA55EA56081718177
:101A7000828193810E9480344B015C01A701960111
:101A8000C301B2010E94D8376BAB7CAB8DAB9EAB70
:101A9000A50194016B8D7C8D8D8D9E8D0E94D83714
:101AA0009B01AC016BA97CA98DA99EA90E948134E0
:101AB0006BAB7CAB8DAB9EABA5019401C301B201B6
:101AC0000E94D8374B015C01A70196016B8D7C8D7C
:101AD0008D8D9E8D0E94D8379B01AC01C501B4014C
:101AE0000E9480342BA93CA94DA95EA90E94003513
:101AF0006B017C019BA192FF13C02DEB37E346E005
:101B000055EBC701B6010E94983787FD1DC02BED2C
:101B10003FE049EC50E4C701B6010E94803412C096
:101B20002DEB37E346E055E3C701B6010E94763559
:101B3000181654F02BED3FE049EC50E4C701B60114
:101B40000E9481346B017C01809060019090610162
:101B5000A0906201B09063012F8D38A149A15AA1D4
:101B6000CA01B9010E948134A50194010E94803408
:101B7000A50194010E94D8370E9477384B015C017F
:101B800020E030E040E05FE3C701B6010E94D837B3
:101B90002F8D38A149A15AA10E94D8379F77A5015E
:101BA00094010E9480350E9465360E94F9357CAB15
:101BB0006BABDB01AB2B09F4D8CE1D894B01A12CFB
:101BC000B12C13FF12C0C501B4010E9428369B013D
:101BD000AC016D857E858F8598890E94D8376D8789
:101BE0007E878F87988B177F1D8BC501B4010E945C
:101BF00028364B015C019B01AC01C701B6010E9474
:101C000080356BA37CA38DA39EA3EFADB4E0EB9FC7
:101C1000C00111248C010D561E4FFC01E851FE4FEE
:101C2000D8012D913D914D915C91608171818281AE
:101C300093810E948034A50194010E9480352796EB
:101C40006CAF7DAF8EAF9FAF27972BA13CA14DA16D
:101C50005EA1CA01B9010E94D8379B01AC0160E0C6
:101C600070E080E090E40E9480346B017C012BEAFC
:101C70003AEA4AE25EE36BA17CA18DA19EA10E949B
:101C8000D8374B015C0120E030E040E850E4C70168
:101C9000B6010E9481349B01AC01C501B4010E94D0
:101CA000D8376BAF7CAF8DAF9EAF20E030E040E027
:101CB0005FE3C701B6010E94D83723966CAF7DAFB2
:101CC0008EAF9FAF23971F8E22242394312CEBA934
:101CD000FCA9E215F30509F448CEBF8DBC3008F02D
:101CE00044C02B8D3C8D4D8D5E8D23966CAD7DADAE
:101CF0008EAD9FAD23970E94D8376B017C01A30165
:101D000092016BAD7CAD8DAD9EAD0E94D837A70121
:101D100096010E9481347B016C01A30192012396FC
:101D20006CAD7DAD8EAD9FAD23970E94D8374B0132
:101D30005C012B8D3C8D4D8D5E8D6BAD7CAD8DAD85
:101D40009EAD0E94D8379B01AC01C501B4010E9431
:101D500080342B013C01EF8DEF5FEF8F470156017F
:101D60008B8E9C8EAD8EBE8E65C0B10180E090E002
:101D70000E9428362BA13CA14DA15EA10E94D8371C
:101D80006B017C010E947B356B8F7C8F8D8F9E8FCA
:101D9000C701B6010E9469384B015C01A9A5BAA52B
:101DA000CD90DD90ED90FC90F7FAF094F7F8F09478
:101DB000A9ADBAAD8D919D910D90BC91A02D8F8F45
:101DC00098A3A9A3BAA3A70196016B8D7C8D8D8DD5
:101DD0009E8D0E94D8372B013C012F8D38A149A13F
:101DE0005AA1C501B4010E94D8379B01AC01C301BF
:101DF000B2010E9481342B013C01A7019601C5016B
:101E0000B4010E94D8376B017C012F8D38A149A104
:101E10005AA16B8D7C8D8D8D9E8D0E94D8379B0134
:101E2000AC01C701B6010E9480346B8F7C8F8D8F0F
:101E30009E8F1F8EA30192016FA578A989A99AA9E7
:101E40000E948134EFA1F8A560837183828393831C
:101E50002B8D3C8D4D8D5E8D6BA57CA58DA59EA596
:101E60000E948134AFA9B8AD6D937D938D939C93FF
:101E7000139727962CAD3DAD4EAD5FAD2797F8017A
:101E800060817181828193810E948134D8016D9338
:101E90007D938D939C931397BE01635F7F4F83E97E
:101EA00091E00E94053480911B0181116BC0BFEF4E
:101EB0002B1A3B0A0CCF8D8984608D8B80911A017F
:101EC000823009F45FC00E94981580911B01811136
:101ED00062C0FBA1F071FF2E10921F012BA123FB0A
:101EE000882780F90E946E1086B18072909100015F
:101EF000891749F084E00E9427160E94B31480E0FD
:101F00000E946E1048C0B80188EE91E00E9405342E
:101F100081E08093190182E00E9437160E94B31479
:101F200080911B01811137C080911A018111F6CF78
:101F300080911901813081F4FF2051F08CE0E1E0C3
:101F4000F1E0ADE0B1E001900D928A95E1F707C0B4
:101F500085E00E94271603C081E080931F01109244
:101F6000190180E00E946E100E94B3140E94091FA4
:101F70000E9421230E948D220E94563480911F01CD
:101F8000811187C08CE0E8EEF1E0A3E9B1E00190B7
:101F90000D928A95E1F78091C30180938301882394
:101FA00009F47AC00E9498158091830190911A01DA
:101FB000833041F49230B9F188E00E9437160E94D4
:101FC000B31431C081E080937C01109280011092A3
:101FD0007F0110927D011092820110928501109272
:101FE000840184E680932101809322018093230160
:101FF000923079F06FE971E080E00E949A218823A5
:10200000B9F10E948E3080E00E94852180E00E941C
:10201000C8028DEB92E00E947E2284E592E00E944D
:102020007E220E946628109283012DC081E034C078
:1020300082E032C088E130C089E12EC084E02CC04B
:102040008BE12AC085E228C084E126C08EE124C04D
:102050008FE122C086E120C080E21EC082E21CC067
:1020600083E21AC084E218C080E116C08FE014C079
:1020700087E012C08CE0E8EEF1E0A3E9B1E0019066
:102080000D928A95E1F780E007C01A8E1BA20C948E
:102090000F030E941F027FCFC65BDF4F0FB6F8947D
:1020A000DEBF0FBECDBFDF91CF911F910F91FF908B
:1020B000EF90DF90CF90BF90AF909F908F907F90E8
:1020C0006F905F904F903F902F9008950E94112342
:1020D000892B19F082E00C943716089510920001B4
:1020E00090916C0197FD03C090E2909300018823CA
:1020F00031F09091000180E28927809300010895DA
:1021000020916C0120FF08C02BE832E441E25DE33E
:102110000E94D83741E001C040E00C94BB213F92BF
:102120004F925F926F927F928F929F92AF92BF92E7
:10213000CF92DF92EF92FF920F931F93CF93DF9393
:10214000CDB7DEB7A4970FB6F894DEBF0FBECDBFF4
:1021500010911F05112391F181E080931A0183EC06
:1021600092E00E947E22812F0E9458220E940B271B
:1021700085EF91E0019739F0EFE9FFE03197F1F752
:1021800000C00000F7CF1150123030F08FB7F89434
:1021900010921F058FBF12C08DEB92E00E947E222D
:1021A0008BEA92E00E947E220E94662880E10E94D3
:1021B0002D1680911E0584FFFCCFE8CF10911E05DF
:1021C000112309F4AEC214FF04C081E080931B0107
:1021D000B2C310FFB2C18CE0E1E0F1E0DE0159963C
:1021E00001900D928A95E1F7BE01675E7F4FCE01A7
:1021F0000D960E9440168CE30E94D62680911A010B
:102200008830E1F058F4813099F1A8F0823099F1EA
:10221000843009F043C08DE093E03EC0803229F164
:1022200018F4803171F03AC0803441F18038B1F552
:1022300085EF92E031C080E293E02EC08CE193E024
:102240002BC080911C0187FD10C086E193E00E94A5
:102250007E2280911C0180FF06C080E31AC082FFAD
:1022600017C085FFFACF81E314C082E193E014C068
:1022700087E093E011C081E093E00EC08BEF92E025
:102280000E947E2280911C0183FFE9CF83E301C07D
:1022900082E30E94D62602C00E947E2280915B01CA
:1022A000F82FF170BF2E80FF07C080912601882390
:1022B00019F08EEE92E053C04090B7015090B801F3
:1022C0006090B9017090BA014FE9842E41E0942EDC
:1022D0009E012F5F3F4F7901CE010D966C0100E00A
:1022E000F40161917191819191914F012085318526
:1022F000428553850E948134F70160837183828314
:102300009383023061F4A30192010E948134F701AA
:102310006083718382839383BB2019F0CACFB1108D
:1023200011C0F7012081318142815381F601608122
:102330007181828193810E948034F6016083718370
:10234000828393830F5FF4E0EF0EF11C24E0C20E52
:10235000D11C033029F6B110ACCF87EE92E00E9479
:102360007E22CE010D960E94F22680915B0181FFB4
:102370001FC082EE92E00E947E229091F204809132
:102380001102981710F0815F01C08150891B0E94D3
:1023900058228CE20E94D6268091480690914906E8
:1023A000981710F0805801C08150891B0E94582254
:1023B0008EED92E00E947E2280911A018C7749F086
:1023C00060910A0570910B0580910C0590910D05A7
:1023D00003C060E070E0CB010E9480100E940A02FE
:1023E000F82E0E947C16082F86B1982F907280914B
:1023F0000001E92EE8268F2D802B8E2959F189EDD9
:1024000092E00E947E22EE2019F080E50E94D626FE
:10241000FF2079F0F0FE03C088E50E94D626F1FE89
:1024200003C089E50E94D626F2FE03C08AE50E9419
:10243000D626002379F000FF03C082E50E94D6264D
:1024400001FF03C088E40E94D62602FF03C083E593
:102450000E94D62680912601882321F08150809306
:10246000260118C080911A018C7711F08DE101C00E
:1024700089E08093260180912501811103C081E0CC
:102480008093250183ED92E00E947E22CE01019689
:102490000E94F22680912501882321F081508093AB
:1024A000250143C080911A018C7711F083E101C0AE
:1024B00089E0809325018EEC92E00E947E2280913B
:1024C00021010E9458228CE20E94D626809122018E
:1024D0000E9458228CE20E94D626809123010E94FD
:1024E000582285B1082F007184FF05C02D9B02C0C2
:1024F00002E001C001E0439B03C0FF24F39403C04A
:10250000002399F0F12C8AEC92E00E947E220023B5
:1025100039F000FF02C083E501C083E40E94D626A3
:10252000FF2019F086E40E94D6268EE30E94D6266C
:102530000E940B2781E00E942D16812F887E09F4CE
:1025400067C080911A01982F937009F050C088726B
:10255000A1F080911C01807C81F40E947E1E82E0AB
:1025600080931E0180911A01803239F417FDE1C178
:1025700080911C01806880931C0180911A01811157
:1025800003C091E090931C0116FF07C085FD05C0B4
:1025900090911C01906490931C0113FF05C0807EF4
:1025A00019F480E180931A0115FF21C08DEB92E0B0
:1025B0000E947E2289E692E00E947E220E94662886
:1025C00080911C0187FD0EC090911A01903439F45E
:1025D00083FFABC1837E826080931C01A6C19038CB
:1025E00009F0A3C180911C01806280931C0117FF38
:1025F0000CC080911A01813029F480911C01856002
:1026000080931C0180E880931A0188EE0E942D16A9
:1026100011FF44C0812F8876F1F580911A01803432
:1026200071F480911C0185FD0AC084FF03C01092E3
:102630001A0105C082FF03C0886080931C0180914D
:102640001A01882381F084FF26C090911C0190FF1D
:1026500022C0803141F480912401882321F08860D8
:102660008093240118C010921E010E941123892B0F
:1026700071F080911C0186FD0AC010921C0188E057
:1026800080931A010E94C3160E946D2104C010920B
:102690001C0110921A0182E00E942D1612FF41C007
:1026A00080911A01807D90911C018823D9F080913E
:1026B0001D01811117C097FD15C00E947E1E8091DB
:1026C0001102809310020E94322380911E0181FF2B
:1026D00005C090911C01916090931C01897F8093AB
:1026E0001E011CC097FF0AC010921E010E942123E8
:1026F0000E94091F0E941F020E948D2280911C01CE
:1027000085FF08C08F77816080931C0180E48093EF
:102710001A0104C010921C0110921A0184E00E9458
:102720002D1690912005992309F4ABC08FB7F8942A
:10273000109220058FBF4091210190FD02C0842F8F
:1027400001C084E691FD865F92FD8A5093FD8F5F04
:1027500094FD8150893C08F088EC8A3008F48AE0C6
:102760003091220195FD02C0232F01C024E696FD81
:1027700022E397FD29E1481303C0231709F481C020
:1027800080932101209322011092250110911102C2
:102790003090F20489E9D82E96E7E92E26E9F22E48
:1027A0000EE73EE2432E131509F457C0812E912CFB
:1027B000489CC001499C900D1124FC01EE5EFD4F28
:1027C0005F01CF010E949E22562E672E782EC92EC1
:1027D0002D2D3E2D4F2D502F0E94983718164CF45A
:1027E0002D2D3E2D4F2D502F6D2D7E2D8F2D902F69
:1027F00008C0252D362D472D5C2D652D762D872D76
:102800009C2D0E94D837F501668B778B808F918F36
:10281000489CC001499C900D11249C012E5E3D4FA7
:102820007901F90182A093A0A4A0B5A0A50194010B
:1028300066897789808D918D0E94983718162CF4BF
:10284000F701868A978AA08EB18E1F5F103109F436
:1028500010E0D52C73010C2DA6CF8D2D9E2DAF2D04
:10286000B02F80930C0290930D02A0930E02B093B0
:102870000F020E947E1E80911102809310020E941E
:10288000322390912105992309F448C08FB7F89419
:10289000109221058FBF2091230190FD02C0822F4D
:1028A00001C084E691FD865F92FD8A5093FD8F5FA3
:1028B00094FD8150893C08F088EC8A3008F48AE065
:1028C000281749F020911E01286020931E01809353
:1028D00023011092250180911A0195FF0DC08031CE
:1028E00059F420912401211102C022E003C020FFED
:1028F00003C0246020932401907C81F0882311F090
:10290000887161F01091840116FF02C01F7B01C025
:102910001064812F0E94C8021093840180911A01D3
:102920008C7F49F00E94C31606C080E480931A0190
:1029300059CE80E229CEA4960FB6F894DEBF0FBE22
:10294000CDBFDF91CF911F910F91FF90EF90DF905E
:10295000CF90BF90AF909F908F907F906F905F903F
:102960004F903F9008951F93CF93DF930E948F1055
:1029700080911C01882309F4D7C00E94112300977D
:1029800059F49091850180918401892BD82FD073BF
:1029900011E0C82FC0740BC0FC018189F7CF909162
:1029A0001B019111C1C080FD07C00E948F10809152
:1029B0001C018111F4CFB8C090911A01292F207CFD
:1029C00009F46CC082FD0FC01092240180E00E94C7
:1029D000852180E00E94C80280911C018D7F846067
:1029E00080931C01E2CF9038C9F48DEB92E00E94F5
:1029F0007E2286E292E00E947E220E94662880E08B
:102A00000E94852180E00E94C8020E94D31E80910E
:102A10001B01811189C00E948F10F9CF903419F4E5
:102A20008F7D80931C0180911C0183FFBECF90910C
:102A300085019923B1F081FD14C080916C0181FF63
:102A400006C080911E01886080931E010AC08D2FF0
:102A50000E94852141E060E070E080E890E40E94FF
:102A60007F2480918401882371F080911C0181FD75
:102A70000AC08C2F0E94C80241E060E070E080E84C
:102A80009FE30E947F2480911C0181FD8ECF806195
:102A900080931C0182E00E94371687CF8091240129
:102AA0008823A9F181FF0AC0809185018823A1F0C4
:102AB00080E00E9485211093240177CF8C7009F467
:102AC00074CF8091850181110AC08091240183FF18
:102AD00003C082E00E9437161092240166CF8DEB6E
:102AE00092E00E947E228FE292E00E947E220E946B
:102AF000662880916C0181FF06C080911E0188606C
:102B000080931E01E2CF8D2F0E948521DECF809120
:102B10001E0183FF4ACF8D2F0E94852180911E01C7
:102B2000877F80931E0141CFDF91CF911F91089540
:102B30000E9466100E94B31480911B01811108C08D
:102B40000E941123892BB1F780911A01883091F3EB
:102B5000089520916C0120FF08C02BE832E441E287
:102B60005DE30E94D83744E001C043E00C94BB21F0
:102B7000CF93DF93C5EBD6E08991882319F00E94AB
:102B8000D626FACFDF91CF910895CF93DF9321E539
:102B9000829FC0011124EC01DD5F40E550E0BE01E1
:102BA00085EB96E00E942502892B69F41092B50608
:102BB0000E94981540E550E065EB76E0CE010E945A
:102BC0008B0280E001C081E0DF91CF910895CF9327
:102BD000DF93C0E08C2F0E94C51581110EC01092AA
:102BE000B5068EE30E94D6260E94B8158AE30E949D
:102BF000D62687E00E940F2712C08091B506882351
:102C000071F00E94D502D82F8EE30E94D6260E9432
:102C1000B8158AE30E94D6268D2F0E941B27CF5F0E
:102C2000C230C1F6DF91CF9108959FB7F8942091FB
:102C30002105822B809321059FBF08959FB7F894AB
:102C400020912005822B809320059FBF08959FB778
:102C5000F89480931F059FBF08952FB7F894909123
:102C60001E058095892380931E052FBF08959FB769
:102C7000F89420911E05822B80931E059FBF089516
:102C80008F929F92AF92BF92CF92DF92EF92FF927C
:102C90000F931F93CF93DF93EB0127E2E22E21E006
:102CA000F22E8C016B018CE0C80ED11C69917991D8
:102CB00089919991F70181909190A190B1907F01B4
:102CC0000E942A36A50194010E948035F801619383
:102CD0007193819391938F01CC15DD0539F7DF91C5
:102CE000CF911F910F91FF90EF90DF90CF90BF9009
:102CF000AF909F908F90089596B1892F877049F07B
:102D0000892F8095817091FF826092FD03C084605D
:102D1000089580E008951F920F920FB60F9211242C
:102D20002F933F934F935F936F937F938F939F93D3
:102D3000AF93BF93EF93FF930E947C16882391F08B
:102D400080FF03C00E94AE240DC082FF04C08091AA
:102D50001E05826005C081FF05C080911E05886048
:102D600080931E05FF91EF91BF91AF919F918F913D
:102D70007F916F915F914F913F912F910F900FBE77
:102D80000F901F9018952F923F924F925F926F92E3
:102D90007F928F929F92AF92BF92CF92DF92EF92EB
:102DA000FF920F931F93CF93DF93CDB7DEB7C95434
:102DB000D1090FB6F894DEBF0FBECDBF20911E0122
:102DC0002E8F20FD81C722702FAB3E8D347038AF1F
:102DD0004091F20449AF5EE2459FC0011124DC013D
:102DE000AE5EBD4F2696BFAFAEAF269740911102A3
:102DF0004AAF4F5F498F403111F04BAF01C01BAE5E
:102E00005EE2ABAD5A9FC0011124FC01EC5DFD4FA9
:102E10002896FFAFEEAF289790914805809149051D
:102E2000981709F451C78091C4059091C505892B65
:102E300009F0EBC2B8ADBB2349F02696EEADFFAD6D
:102E40002697F093C505E093C40506C00E941123A0
:102E50009093C5058093C4052091C4053091C505A4
:102E60003A872987232B09F42FC71091F404812F67
:102E7000817010FF03C01092F404C1C09091F3045C
:102E80009F5F953009F0892F8093F304482F50E01D
:102E9000A985BA8550969C91B1E1B49FF001B59F88
:102EA000F00D1124E159FA4F908BA985BA85E1E123
:102EB0008E9FC001112420E030E0CD90DD90ED9098
:102EC000FD90F901E80FF91FE159FA4F63E0CC0CCE
:102ED000DD1CEE1CFF1C6A95D1F7C082D182E28214
:102EE000F3822C5F3F4F2C30310539F7F1E1F49F2D
:102EF000C001F59F900D1124FC01E159FA4FA985FD
:102F0000BA851C964D915D916D917C911F9793E0D0
:102F1000440F551F661F771F9A95D1F74487558731
:102F2000668777871C966D917D918D919C911F97F7
:102F30000E9428366093F9047093FA048093FB048E
:102F40009093FC04E985FA85268D378D40A151A127
:102F50000E9480359B01AC016093FD047093FE04D8
:102F60008093FF049093000560E070E080EA9FE3A7
:102F70000E948035609301057093020580930305DC
:102F8000909304051092F5041092F6041092F70441
:102F90001092F804FFA9F11102C013FF20C0609144
:102FA0001205709113058091140590911505609399
:102FB0000A0570930B0580930C0590930D059B01FA
:102FC000AC010E94D837A985BA8552966D937D933E
:102FD0008D939C935597177F1093F40410C0E98547
:102FE000FA8562897389848995890E94773860930C
:102FF0000A0570930B0580930C0590930D051092B4
:103000000605109207051092080510920905A9857A
:10301000BA855A962D913D914D915C915D972D8386
:103020003E834F83588760E070E080E09FE30E941A
:10303000803569837A838B839C83E985FA85468C06
:10304000578C60A071A0FFA9FF2309F44CC022E0B7
:1030500020930505A985BA855296CD90DD90ED9017
:10306000FC905597A70196010E94D8379B01AC01AF
:10307000C301B2010E9480344B015C0120E030E0CA
:10308000A9010E94763587FF1DC02D813E814F81A9
:103090005885CA01B9010E948134A30192010E949E
:1030A000D8379B01AC01C701B6010E9480340E9451
:1030B00077386093120570931305809314059093ED
:1030C0001505A3C18092060590920705A0920805F8
:1030D000B092090510921205109213051092140572
:1030E0001092150592C11092050540921605509256
:1030F00017056092180570921905B8ADBB2361F0F1
:1031000010921205109213051092140510921505D5
:10311000C12CD12C76011CC0EBADF9ADEF1749F0F5
:103120002896AEADBFAD2897CD90DD90ED90FC9088
:1031300003C0C12CD12C7601C701B6010E9477389B
:1031400060931205709313058093140590931505F1
:1031500089859A850E949E22698B7A8B8B8B9C8BAA
:103160009B01AC010E94D8376D877E878F87988B33
:10317000A985BA8552962D913D914D915C915597B7
:1031800029873A874B875C870E94763587FF72C014
:103190002D853E854F85588969857A858B859C85E7
:1031A0000E94803429813A814B815C810E94D8370A
:1031B0009B01AC01C301B2010E94803460931605EB
:1031C00070931705809318059093190520E030E05F
:1031D000A9010E94763518163CF1B2E0B0930505BE
:1031E0002D813E814F815885CA01B9010E948134E9
:1031F000A30192010E94D8379B01AC0169857A85B1
:103200008B859C850E9480340E94773860931205DC
:103210007093130580931405909315058091F40421
:1032200088608093F404F1C0A70196016D857E85C6
:103230008F8598890E94803429813A814B815C81F5
:103240000E94D83760931A0570931B0580931C0564
:1032500090931D0529893A894B895C8920930E0535
:1032600030930F05409310055093110533E03093D0
:103270000505CBC0A701960169857A858B859C855C
:103280000E94803429813A814B815C810E94D83729
:10329000A30192010E94813420E030E040E05FE32E
:1032A0000E94D8374B015C0120E030E0A9010E9468
:1032B000983718160CF091C0A5019401C301B20112
:1032C0000E94983718160CF084C0A70196016D85EE
:1032D0007E858F8598890E94803429813A814B812F
:1032E0005C810E94D8379B01AC0160931A057093F2
:1032F0001B0580931C0590931D05C501B4010E9418
:1033000098371816DCF589899A89AB89BC8980932E
:103310000E0590930F05A0931005B0931105298514
:103320003A854B855C856D857E858F8598890E9461
:103330007635811104C091E09093050566C029851A
:103340003A854B855C856D857E858F8598890E9441
:10335000803429813A814B815C810E94D8379B015E
:10336000AC01C301B2010E948034609316057093D2
:103370001705809318059093190547C0809216058C
:1033800090921705A0921805B092190580921A051F
:1033900090921B05A0921C05B0921D052D813E81C7
:1033A0004F815885CA01B9010E948134A501940159
:1033B0000E94D837A70196010E9481340E94773875
:1033C00060930E0570930F0580931005909311057F
:1033D0001CC0A2E0A093050518C01092160510921B
:1033E00017051092180510921905809112059091F9
:1033F0001305A0911405B091150580930E059093C7
:103400000F05A0931005B093110580916E05E82F6C
:10341000F0E0FE83ED8346E09F01429FF001439F71
:10342000F00D1124E65BFA4F8091F30484838091C0
:10343000C4059091C5059A878987DC015E96BC9189
:10344000BFA3FC01F78DF8A7DC019096BC91B9A74A
:10345000FC01F1A1FAA720910105309102054091EC
:103460000305509104056FA178A58B2F9F2F0E9413
:1034700080346BAB7CAB8DAB9EAB20E030E0A90120
:103480000E94763587FF04C01BAA1CAA1DAA1EAA8B
:103490005090160540901705209118052D87309102
:1034A0001905398B40910E054A8F50910F055B8F9E
:1034B000809110058C8F909111059D8FA0911A0518
:1034C000ABA7B0911B05BCA7E0911C05EDA7F0913F
:1034D0001D05FEA720910505298330900A0520903F
:1034E0000B0560900C0570900D05309106053FA707
:1034F0004091070548AB5091080559AB80910905EB
:103500008AAB909112059DAFA0911305AEAFB0911B
:103510001405BFAFE09115052196EFAF21972BA5BC
:103520003CA54DA55F2F652D742D8D8599890E9431
:103530007635811103C0F2E0FCAF02C021E02CAF70
:103540001FA108A539A529963FAF29974AA52A9614
:103550004FAF2A978EE3C82E83ECD82E8EE2E82E4A
:1035600089E3F82E1D8A1E8A1F8A188ECF8ED8A254
:10357000E9A2FAA29981913009F4F9C0A985BA8526
:103580005A962D913D914D915C915D97913008F443
:103590007EC0933009F02FC1C701B6010E94D83711
:1035A0004B015C0120E030E040E05FE30E94D8374F
:1035B0009B01AC01632D722DC3010E948034A701D1
:1035C00096010E94D8376BA37CA38DA39EA39B0179
:1035D000AC01612F702F29968FAD29972A969FAD48
:1035E0002A970E948034162F072F29968FAF29978C
:1035F0002A969FAF2A97252D342D4D8559890E94F3
:10360000763587FD0BC020E030E0A9016BA17CA1DD
:103610008DA19EA10E94763518168CF1252D342D92
:103620004D8559896FA178A589A59AA50E948034F6
:103630009B01AC010E9481346B017C01232D322D52
:10364000A3016A8D7B8D8C8D9D8D0E9481349B01A1
:10365000AC01C701B6010E9480356B017C013A8C38
:103660002B8C6C8C7D8C8201BD852996BFAF2997F0
:10367000E9892A96EFAF2A97F1E0F98355C1A501B0
:103680009401632D722DC3010E9480346CC0C70168
:10369000B6010E94D8374B015C0120E030E040E0E9
:1036A0005FE30E94D837232D322DA3010E9481347D
:1036B000A70196010E94D8379B01AC01612F702FA2
:1036C00029968FAD29972A969FAD2A970E9480341C
:1036D000162F072F29968FAF29972A969FAF2A97E3
:1036E000262F372FAC01652D742D8D8599890E9469
:1036F000983718168CF5252D342D4D8559896FA1D5
:1037000078A589A59AA50E9480349B01AC010E94EE
:1037100081346B017C01232D322DA3016A8D7B8DB9
:103720008C8D9D8D0E9481349B01AC01C701B60137
:103730000E9480356B017C01BCADB9833A8C2B8C27
:103740006C8C7D8C8201ED852996EFAF2997F989E4
:103750002A96FFAF2A97E8C0A5019401632D722D28
:10376000C3010E948134362E272E3C01DDC02A8DF4
:103770003B8D4C8D5D8DC701B6010E94D8379B01F2
:10378000AC01612F702F29968FAD29972A969FAD96
:103790002A970E9480344B015C019B01AC016BA510
:1037A0007CA58DA59EA50E94983718160CF0B4C074
:1037B0002BA53CA54DA55EA5612F702F29968FAD39
:1037C00029972A969FAD2A970E9480342A8D3B8D97
:1037D0004C8D5D8D0E9480356B017C011BA50CA575
:1037E0002DA529962FAF29973EA52A963FAF2A9758
:1037F00042E0498399C0C701B6010E94D8374B0106
:103800005C01232D322DA3010E94763587FF4CC029
:1038100020E030E040E05FE3C501B4010E94D8370A
:103820009B01AC01632D722DC3010E948034A7015E
:1038300096010E94D8379B01AC01612F702F299609
:103840008FAD29972A969FAD2A970E9480346BA34B
:1038500022967FAF229723968FAF239724969FAF10
:1038600024972FA538A949A95AA90E949837181654
:10387000DCF4A5019401632D722DC3010E948034F4
:10388000362E272E3C011BA122960FAD22972396A0
:10389000BFAD23972996BFAF29972496EFAD249704
:1038A0002A96EFAF2A9740C02FA538A949A95AA94F
:1038B000612F702F29968FAD29972A969FAD2A9751
:1038C0000E9480349B01AC010E9481346B017C0119
:1038D000232D322DA3016DAD7EAD8FAD21969FAD11
:1038E00021970E9481349B01AC01C701B6010E945F
:1038F00080356B017C013DAC2EAC6FAC21967FAC6A
:1039000021971FA508A9F9A92996FFAF29972AA9E8
:103910002A962FAF2A9708C0182D092D2996AFAEE9
:1039200029972A96BFAE2A97A70196016D897E89AD
:103930008F89988D0E9481346D8B7E8B8F8B988FB1
:103940002F8D38A149A15AA10E94763587FF09C061
:103950002D893E894F89588D6F8D78A189A19AA1B3
:1039600022C02BA93CA94DA95EA9612F702F2996D1
:103970008FAD29972A969FAD2A970E9498371816DF
:10398000ACF52EE333EC4EE259E36F8D78A189A1BB
:103990009AA10E9481346F8F78A389A39AA32D895D
:1039A0003E894F89588D0E9480346B017C01212F04
:1039B000302F29964FAD29972A965FAD2A976FA58C
:1039C00078A989A99AA90E94763587FDD3CD832D40
:1039D000922DD30180930A0590930B05A0930C05BB
:1039E000B0930D053981309305050EC0832D922DBE
:1039F000D30180930A0590930B05A0930C05B09317
:103A00000D054981409305052091FD043091FE0488
:103A10004091FF0450910005612F702F29968FADC2
:103A200029972A969FAD2A970E94D8372B013C01EF
:103A30000E945F356B017C016091F9047091FA047A
:103A40008091FB049091FC040E945F354B015C0166
:103A5000A70196010E9480340E94F93569837A8318
:103A60008B839C83A6E08D819E81A89FF001A99FF6
:103A7000F00D1124E65BFA4F29813A8131832083CE
:103A8000232B19F45FA9511101C12091F504309144
:103A9000F6044091F7045091F8046D897E898F896E
:103AA000988D0E94813469877A878B879C87A301D0
:103AB0009201C501B4010E9480349B01AC0169856B
:103AC0007A858B859C850E9480354B015C0120ECBA
:103AD00031EE44E65EE40E94D8370E945F350E94D2
:103AE000F935603DA7E07A078105910560F446E06D
:103AF0002D813E81429FF001439FF00D1124E65B32
:103B0000FA4F158253C0603A5FE075078105910551
:103B100060F426E0AD81BE812A9FF0012B9FF00D5D
:103B20001124E65BFA4F31E011C060344FE17407B5
:103B30008105910568F426E0AD81BE812A9FF001E0
:103B40002B9FF00D1124E65BFA4F32E035830CC059
:103B5000A6E04D815E81A49FF001A59FF00D112488
:103B6000E65BFA4FB3E0B58346E02D813E81429F8C
:103B7000F001439FF00D1124E65BFA4F2581022EE0
:103B800004C096958795779567950A94D2F7A98191
:103B9000BA8102C0AA0FBB1F2A95E2F7B183A083A6
:103BA00061157105B1E08B07910568F446E02D8140
:103BB0003E81429FF001439FF00D1124E65BFA4FD6
:103BC0007383628304C08FEF9FEF9383828380911E
:103BD000490580936E058F5F863019F08093490503
:103BE00002C010924905E091C405F091C505812FEE
:103BF000902F2996AFAD29972A96BFAD2A97868F29
:103C0000978FA0A3B1A3C092F904D092FA04E092D6
:103C1000FB04F092FC04A3019201C701B6010E94CB
:103C20008034A50194010E94D8376093F504709305
:103C3000F6048093F7049093F804209106053091E0
:103C400007054091080550910905612F702F2996AD
:103C50008FAD29972A969FAD2A970E9476358111BC
:103C6000DBC820E030E0A901612F702F29968FADCD
:103C700029972A969FAD2A970E94983718161CF408
:103C800080911E0104C098AD992329F08E8D81602A
:103C900080931E0119C01092C5051092C405A9ADEC
:103CA000BAADAB1709F4B8C8E98DE03109F4198E43
:103CB00080911002FAADF81303C0298D20931002F1
:103CC000398D3093110292C8C75BDF4F0FB6F8945D
:103CD000DEBF0FBECDBFDF91CF911F910F91FF903F
:103CE000EF90DF90CF90BF90AF909F908F907F909C
:103CF0006F905F904F903F902F900895CF93DF93F8
:103D0000C091C405D091C5052097C9F08091F404F5
:103D100081608093F40460910A0570910B05809195
:103D20000C0590910D059B01AC010E94D8376A8B60
:103D30007B8B8C8B9D8B1092C5051092C405DF91F7
:103D4000CF91089580915801682F20915901422FF9
:103D5000982F917080FD94E0822F817020FD88E083
:103D600061FD906141FD806262FD906442FD80686A
:103D7000909322058093230508951F920F920FB60A
:103D80000F9211248F939F938BB19091220594757C
:103D90008B7A892B8BB915BC9F918F910F900FBE99
:103DA0000F901F90189580916F008D7F80936F000A
:103DB00080918100887F816080938100109224052A
:103DC00080915A0190911A018F3F39F420911F057B
:103DD000211103C0903881F402C0943069F090E062
:103DE000009741F0EFE9FFE03197F1F700C00000E4
:103DF0000197F6CF81E001C080E090916C0192FFC5
:103E000002C091E08927882311F0289A0895289804
:103E10000895CF93DF930E94D31E8BE2E3EFF4E08B
:103E2000DF011D928A95E9F7C5E2D5E083E2FE0144
:103E300011928A95E9F71092C5051092C405109267
:103E4000480510926E0581E0809349051092240583
:103E50000E94A21E809123058F878BB18B7A90914F
:103E60002205892B8BB98BB1877590912305892BFE
:103E70008BB9DF91CF9108951F920F920FB60F92D9
:103E800011242F933F934F935F936F937F938F935F
:103E90009F93AF93BF93EF93FF938091240581117C
:103EA0000BC28BB190913405987A8775892B8BB9A9
:103EB0008BB18B7A90913305892B8BB98091320528
:103EC00086BD82E085BD81E0809324057894809151
:103ED000460590914705892B09F0A8C080914805B7
:103EE00090916E05981709F49BC0E09148052E2F1C
:103EF00030E086E0E89FF0011124E65BFA4FF09392
:103F00004705E093460582819381909389008093D1
:103F10008800808191819093420580934105E481DE
:103F2000809143058E1761F1E093430581E1E89F9D
:103F3000F0011124E159FA4FF0934505E09344054F
:103F400084859585A685B785B695A7959795879518
:103F500080932D0590932E05A0932F05B0933005E7
:103F60008093290590932A05A0932B05B0932C05E7
:103F70008093250590932605A0932705B0932805E7
:103F8000E0914405F09145059089809123058927AA
:103F90008093340586E0829FD001839FB00D112469
:103FA000A65BBA4F15962C9180819181A281B38135
:103FB000022E04C0B695A795979587950A94D2F7D7
:103FC0008093350590933605A0933705B093380557
:103FD00084819581A681B781022E04C0B695A795EC
:103FE000979587950A94D2F78093390590933A056F
:103FF000A0933B05B0933C0580859185A285B38550
:1040000004C0B695A795979587952A95D2F7809382
:104010003D0590933E05A0933F05B093400506C033
:104020000E94D31E84E00E94371646C18091190178
:104030008130B1F486B1807290910001891781F0CE
:10404000109219018CE0E1E0F1E0ADE0B1E0019007
:104050000D928A95E1F780911E05806480931E057C
:104060001092330540912505509126056091270552
:10407000709128058091350590913605A0913705FE
:10408000B0913805840F951FA61FB71F8093250593
:1040900090932605A0932705B0932805E091440549
:1040A000F0914505448555856685778548175907FC
:1040B0006A077B0768F524E020933305448555851E
:1040C00066857785841B950BA60BB70B809325051A
:1040D00090932605A0932705B09328052089809109
:1040E000010190910201A0910301B091040123FF0D
:1040F00004C00197A109B10903C00196A11DB11D1A
:104100008093010190930201A0930301B0930401F5
:104110004091290550912A0560912B0570912C053D
:104120008091390590913A05A0913B05B0913C05ED
:10413000840F951FA61FB71F8093290590932A050A
:10414000A0932B05B0932C0544855585668577850E
:10415000481759076A077B0778F5209133052061D6
:10416000209333054485558566857785841B950B9B
:10417000A60BB70B8093290590932A05A0932B05D6
:10418000B0932C0520898091050190910601A091A2
:104190000701B091080125FF04C00197A109B109E9
:1041A00003C00196A11DB11D8093050190930601E6
:1041B000A0930701B093080140912D0550912E0561
:1041C00060912F057091300580913D0590913E05DD
:1041D000A0913F05B0914005840F951FA61FB71F02
:1041E00080932D0590932E05A0932F05B093300555
:1041F0004485558566857785481759076A077B0783
:1042000078F5209133052064209333054485558546
:1042100066857785841B950BA60BB70B80932D05C0
:1042200090932E05A0932F05B0933005208980919F
:10423000090190910A01A0910B01B0910C0127FF97
:1042400004C00197A109B10903C00196A11DB11DC8
:104250008093090190930A01A0930B01B0930C0184
:1042600080911A01843039F49091330580912001B6
:1042700089238093330580914105909142050197F0
:104280009093420580934105892B69F4109247056C
:1042900010924605809148058F5F809348058630CF
:1042A00011F41092480590913305809122058927D9
:1042B0008093330510922405FF91EF91BF91AF9148
:1042C0009F918F917F916F915F914F913F912F912E
:1042D0000F900FBE0F901F90189580916C0182FF78
:1042E00002C0289A01C02898809122058093330546
:1042F00080915701880F8450819580933205809179
:104300006F00826080936F00089590911B0191115E
:104310000CC0811102C02C9806C0803111F42D9878
:1043200001C02D9A2C9A109225010895249A259A5D
:104330002C9808951F93CF93DF93182FEB018DE0F6
:10434000189FB00111247E5F4CE050E0CE010E9426
:104350002502892B59F48CE0FE0111928A95E9F728
:10436000BE01812F0E94DB2480E001C081E0DF914B
:10437000CF911F9108958F929F92AF92BF92CF924B
:10438000DF92EF92FF920F931F93CF93DF93CDB7FE
:10439000DEB72D970FB6F894DEBF0FBECDBF6B0111
:1043A0007C01042F20E030E0A9010E94763587FFD0
:1043B00007C08DE20E94D626F7FAF094F7F8F09441
:1043C000102F123060F020E030E048EC52E4C701DA
:1043D000B6010E94D8376B017C011250F2CF00FF6A
:1043E0000AC020E030E040E251E4C701B6010E947B
:1043F000D8376B017C0120E030E040E05FE3C7018B
:10440000B6010E9481340E94F23510E03AE0832E1A
:10441000912CA12CB12C611571058105910591F0AC
:10442000EE24E394F12CEC0EFD1EE10EF11CA5012F
:1044300094010E940139605DF7016083B901CA01EE
:104440001F5FE9CF80E3101748F4E1E0F0E0EC0FE4
:10445000FD1FE10FF11D80831F5FF5CF101313C007
:10446000FE01E10FF11D80E381831F5F0CC010137B
:1044700003C08EE20E94D626FE01E10FF11D80816D
:104480000E94D62611501111F2CF2D960FB6F89436
:10449000DEBF0FBECDBFDF91CF911F910F91FF9077
:1044A000EF90DF90CF90BF90AF909F908F90089546
:1044B000CF93DF93843630F06AE00E94E138C0E3A6
:1044C000C90F03C0C0E08A3030F06AE00E94E138D2
:1044D000D0E3D90F01C0D0E0805D0E94D626DD2355
:1044E00019F08D2F0E94D626CC2329F08C2FDF9136
:1044F000CF910C94D626DF91CF910895CF93DF937F
:10450000FC018491EF012196882321F00E94D62698
:10451000FE01F7CFDF91CF910895E1E0F1E0A4EF44
:10452000B1E041915191619171914D935D936D9382
:104530007D9381E0ED30F807A1F70895BF92CF9207
:10454000DF92EF92FF920F931F93CF93DF937C0143
:10455000FC0102A513A5D4A5C5A5818980FF18C0BB
:104560006091220170E080E090E00E942A362AE00B
:1045700037ED43E25CE30E94D8379B01AC01B80100
:104580008D2F9C2F0E94D8378B01D82FC92F2DC07B
:1045900082FD17C06091210170E080E090E00E94F0
:1045A0002A362AE037ED43E25CE30E94D8379B01CC
:1045B000AC01B8018D2F9C2F0E94D8378B01D82FCA
:1045C000C92FF701B6A0C7A0D0A4F1A42B2D3C2D74
:1045D0004D2D5F2DB8018D2F9C2F0E9498371816F6
:1045E00024F40B2D1C2DDD2DCF2D20E030E040E8F4
:1045F0005FE3B8018D2F9C2F0E949837181624F086
:1046000000E010E0D0E8CFE3B8018D2F9C2FDF91C0
:10461000CF911F910F91FF90EF90DF90CF90BF90BF
:104620000895809111029091F204981739F02EE2CA
:10463000829FC00111248E5E9D4F089580E090E01E
:1046400008958CE1E4EFF1E0DF011D928A95E9F72E
:10465000109211021092F20481E08093C60510922C
:10466000100208952F923F924F925F926F927F9225
:104670008F929F92AF92BF92CF92DF92EF92FF9272
:104680000F931F93CF93DF93C091F204C11101C028
:10469000C0E1C150D0911002DC1709F41DC1EC2E0D
:1046A000F12C2EE2C29F800111240E5E1D4FF801F5
:1046B000A688B788C08CD18C628D738D848D958DC2
:1046C0009B01AC010E948134F801268D378D40A1F9
:1046D00051A10E94D8374B018C019B01AC01B5015F
:1046E000C6010E94763587FD02C0540168018EE242
:1046F0008E9DF0018F9DF00D1124EE5EFD4FC501E2
:10470000D601828B938BA48BB58BC11101C0C0E104
:10471000C150DC1761F02EE22E9DC0012F9D900D3F
:1047200011249C012E5E3D4F7901DEE233C0809161
:104730001102D81360C00E947E1E5DC0AC2EB12C49
:10474000DA9DC001DB9D900D1124FC01EE5EFD4F52
:104750006F01C11101C0C0E1C150809111028C13E1
:1047600002C00E947E1EDA9D8001DB9D100D112487
:104770000E5E1D4FF80186889788A08CB18CA5012C
:10478000940162897389848995890E9476358111A3
:1047900006C0760180911002C813D0CF2CC0F8015A
:1047A000628D738D848D958D9B01AC010E94813447
:1047B000F801268D378D40A151A10E94D837F7010D
:1047C00022893389448955890E9481342B013C0117
:1047D0009B01AC01C501B4010E949837F80118167D
:1047E0002CF4428A538A648A758AD3CF828A938A48
:1047F000A48AB58ACECFD0911002FEE2DF9F80015D
:1048000011240E5E1D4FC1E0CD0FC03109F4C0E090
:104810002090F2048EE2382EC21509F45BC0CC2E33
:10482000D12C3C9CC0013D9C900D11249C012E5E1E
:104830003D4F7901F8014288538864887588F901F1
:1048400082889388A488B588A5019401C301B20128
:104850000E94763587FF24C0F801628D738D848DA8
:10486000958D9B01AC010E948134F801268D378D16
:1048700040A151A10E94D837A30192010E94813426
:104880002B013C019B01AC01C501B4010E9498378A
:10489000181634F4F701428A538A648A758ADC2F29
:1048A0003C9CF0013D9CF00D1124EE5EFD4F2689ED
:1048B0003789408D518D62897389848995890E94D9
:1048C0007635811101C0DC2FCF5FC03109F4C0E023
:1048D0008701A2CFD0931002DF91CF911F910F914A
:1048E000FF90EF90DF90CF90BF90AF909F908F9010
:1048F0007F906F905F904F903F902F9008951F93FF
:10490000CF93DF93142F20E030E040EA51E40E947F
:10491000D8370E945F350E94F935EB012097D1F01E
:1049200080911B01811116C0111103C00E94B314A4
:1049300006C00E948F1080911C0181FD0BC02FEFDB
:1049400080E792E0215080409040E1F700C00000F5
:104950002197E4CFDF91CF911F91089580911E059B
:1049600084FD1BC080E10E9437162C9843989091DB
:104970001A01892F8C7221F480911E01867069F0D2
:10498000943031F480911F05811105C086E001C08B
:1049900083E00E9427160C94D31E08956AE080E0FD
:1049A00090E00E94690245E550E067E271E081E035
:1049B00090E00C948B020F931F93CF93C82F8B0121
:1049C0000E9498152DE0C29FC00111244CE050E0D8
:1049D000B8019E5FCF911F910F910C948B02EF92C3
:1049E000FF920F931F93CF93DF93CDB7DEB72C9732
:1049F0000FB6F894DEBF0FBECDBF182F80FFE9C001
:104A00008AE08093570189E180935A0110925801FE
:104A10001092590181E080935B018AE097EDA3EA4F
:104A2000BCE380935C0190935D01A0935E01B09321
:104A30005F018FE692E1A3E0BBE380936001909376
:104A40006101A0936201B093630180E090E0AAE766
:104A5000B4E48093640190936501A0936601B093E0
:104A60006701109268011092690110926A01109218
:104A70006B0110926D0180E090E0A8ECB1E48093AE
:104A80006E0190936F01A0937001B093710180E06B
:104A900090E0AAEFB3E48093720190937301A09326
:104AA0007401B09375012AEF30E0309377012093C1
:104AB000760140E050E060E87FE340937801509356
:104AC000790160937A0170937B0110926C0140E050
:104AD00050E060E273E44093270150932801609313
:104AE000290170932A0140932B0150932C0160936C
:104AF0002D0170932E0140E050E068E475E440938E
:104B00002F0150933001609331017093320140E0E6
:104B100050E86BE375E440933301509334016093A4
:104B200035017093360140933701509338016093FB
:104B3000390170933A0180933B0190933C01A0931B
:104B40003D01B0933E0180E098ECAFE2B8E4809381
:104B50003F0190934001A0934101B09342018093A3
:104B6000430190934401A0934501B093460180E036
:104B700090EAACE8B7E48093470190934801A09392
:104B80004901B0934A0180E090E0A8E4B3EC80933F
:104B90004B0190934C01A0934D01B0934E0180E0E6
:104BA00090E0AEEBB3EC80934F0190935001A09353
:104BB0005101B093520180E090E0A0EAB2EC809302
:104BC000530190935401A0935501B09356010E9454
:104BD000CE2411FF10C0CE0101967C018CE0F701BC
:104BE00011928A95E9F700E0B701802F0E94DB243B
:104BF0000F5F0830C9F712FF14C060E080E093E057
:104C00000E94690260E081E093E00E94690260E036
:104C100081E593E00E94690260E082E593E00E94F2
:104C2000690213FF0AC060E08EEA93E00E94690205
:104C300060E08FEA93E00E9469022C960FB6F89428
:104C4000DEBF0FBECDBFDF91CF911F910F91FF90BF
:104C5000EF9008951F920F920FB60F9211242F9389
:104C60003F934F935F936F937F938F939F93AF93F4
:104C7000BF93EF93FF93E091C600E13271F028F407
:104C8000E83179F40E94AE2456C0EF3321F0EE37BC
:104C900041F482E003C081E001C088E00E94371641
:104CA0004AC0E7FF37C08E2F90E0FC01E458F109BD
:104CB000ED31F10508F03FC0E659FF4F0C94233960
:104CC00080E2ECCF80911A0185FF35C080E4E6CF09
:104CD00081E00DC082E00BC084E009C088E007C01D
:104CE00080E105C080E203C080E401C080E80E944A
:104CF0001E1621C081E00BC082E009C084E007C01D
:104D000088E005C080E103C080E201C080E40E9429
:104D1000151611C0A091490681E08A0F813809F467
:104D200080E090914806891731F0B0E0A953BA4F5E
:104D3000EC9380934906FF91EF91BF91AF919F91C2
:104D40008F917F916F915F914F913F912F910F9034
:104D50000FBE0F901F9018951F920F920FB60F92D3
:104D600011248F939F93EF93FF938091B406E82FC4
:104D7000F0E0E55BF94F90819093C6008F5F893634
:104D800009F480E08093B40690914A06891305C027
:104D90008091C1008F7D8093C100FF91EF919F9121
:104DA0008F910F900FBE0F901F901895E0914A06BB
:104DB00091E09E0F993631F490E004C020911E05D9
:104DC00024FD0FC02091B4062917C1F3F0E0E55B84
:104DD000F94F808390934A068091C100806280934E
:104DE000C10008950F931F93CF938C01C0E0F80189
:104DF00061917191819191918F010E94A915C230A9
:104E000019F08CE20E94D626CF5FC33081F7CF9194
:104E10001F910F9108958AE293E00C947E22CF9324
:104E2000C82F83E393E00E947E228C2F0E94582299
:104E3000CF910C940B27811104C085E293E00C9470
:104E40007E220C940F27CF92DF92EF92FF92CF93A6
:104E5000DF93D82F6A017B01C22F84E20E94D626FD
:104E60008D2F0E9458228DE30E94D6264C2FC70119
:104E7000B6010E94BB21DF91CF91FF90EF90DF90B0
:104E8000CF900C940B27CF93DF93D82FC62F84E2BB
:104E90000E94D6268D2F0E9458228DE30E94D6268E
:104EA0008C2F0E945822DF91CF910C940B27EF9208
:104EB000FF920F931F93CF93DF936091570170E0A0
:104EC00080E00E94432760915A0170E081E00E94D7
:104ED00043276091580170E082E00E94432760916F
:104EE000590170E083E00E94432760916C0162FBEE
:104EF000662760F970E084E00E94432760916C01AE
:104F000066FB662760F970E085E00E944327809188
:104F10006C01082E000C990B692F661F6627661F0F
:104F200070E086E00E94432760915B0170E08AE0B8
:104F30000E94432740915C0150915D0160915E01A8
:104F400070915F0123E08BE00E9423274091600174
:104F500050916101609162017091630123E08CE0E6
:104F60000E94232760916C01617070E08DE00E94C7
:104F7000432760916C0165FB662760F970E084E16E
:104F80000E94432760916C0163FB662760F970E023
:104F900085E10E94432760916C016295617070E029
:104FA00086E10E94432760916D0170E087E10E94D5
:104FB000432740916E0150916F0160917001709193
:104FC000710123E088E10E942327409172015091F2
:104FD0007301609174017091750123E089E10E9471
:104FE000232760917601709177018AE10E9443271F
:104FF000409178015091790160917A0170917B0123
:1050000023E08BE10E9423274091640150916501C8
:10501000609166017091670120E08EE10E94232774
:10502000409168015091690160916A0170916B0132
:1050300020E08FE10E94232760E070E080E20E9480
:105040004327D4E6F12C07E211E083E0E82EED0ED1
:10505000CD2F82E0F81691F0E3E0FE16E9F0F1E0E2
:10506000FF1631F0F80140815181628173811AC0CD
:10507000F801448555856685778514C020E030E0C9
:1050800041E655E4F801608D718D828D938D0E940B
:105090008035AB01BC0106C0F80144A155A166A151
:1050A00077A1705823E08C2F0E9423270C5F1F4F9D
:1050B000CF5FEC12CECFD65FF394DC3821F6DF91D0
:1050C000CF911F910F91FF90EF9008958DE50E9471
:1050D000D6260C940B278F929F92AF92BF92CF92BD
:1050E000DF92EF92FF920F931F93CF93DF937C0198
:1050F0006B01DC01CC91D0E0FE01EB54F94F8081D3
:105100008D3229F4EF012296818101E009C08B32B2
:1051100019F0CA54D94F03C0EF012296818100E0F3
:10512000912CF0E010E020E030E0A9015E01E0ED1C
:10513000E80FEA30D0F4FF5FF93098F49110115085
:10514000A5E0B0E00E942939DC01CB01880F991F4E
:10515000AA1FBB1F9C01AD012E0F311D411D511D0A
:105160000AC0911008C01F5F06C0EE3F41F49110C5
:1051700006C0992493942196D5018C91D7CFFF2313
:1051800009F44FC0CA01B9010E9428364B015C01E5
:1051900020E030E0A9010E947635882349F11F3FC5
:1051A00064F42AE037ED43E25CE3C501B4010E94F8
:1051B000D8374B015C011E5FF2CF1F3F59F42DEC35
:1051C0003CEC4CEC5DE3C501B4010E94D8374B01C7
:1051D0005C010EC0112361F020E030E040E251E4B8
:1051E000C501B4010E94D8374B015C011150F2CFC8
:1051F000002351F0B7FAB094B7F8B094F60180826A
:105200009182A282B38206C0D6018D929D92AD9208
:10521000BC921397C55BD640C150F701C08381E0B3
:1052200001C080E0DF91CF911F910F91FF90EF902F
:10523000DF90CF90BF90AF909F908F9008952F9266
:105240003F924F925F926F927F928F929F92AF9216
:10525000BF92CF92DF92EF92FF920F931F93CF9363
:10526000DF93CDB7DEB7A1970FB6F894DEBF0FBEC0
:10527000CDBF90911B019111C4C18F8FFE013D964E
:1052800089E0DF011D928A95E9F786E08D8BE7E2E0
:10529000F1E0FA8FE98F5F019E012A5E3F4F4901DD
:1052A00000E010E0C12CD12C76019F8D892F90E079
:1052B0009E8F8D8F802F002321F0013021F090E40C
:1052C00003C094E001C090E1D4019D934D01ED8DA8
:1052D000FE8D02C0F595E7958A95E2F7E0FF1BC0C9
:1052E00020E030E040EC5FEBD50194966D917D912C
:1052F0008D919C9197970E94D837362E472E582E25
:10530000692EA70196010E94763587FD04C0C32C43
:10531000D42CE52CF62C0F5F1F4FB4E0AB0EB11C64
:105320000330110539F620907201309073014090DE
:1053300074015090750184E0A82EBB24B39461E001
:1053400071E0CE0101960E94401680916D01682E99
:10535000712CFE01319621E031E03C8F2B8F39A377
:1053600028A3DE0156964D0180E090E000E010E0B9
:10537000B701A60170582D8D3E8D082E02C03595BF
:1053800027950A94E2F720FF22C00F5FA8A1B9A1D8
:105390001D921D921D921C9213979301082E02C01C
:1053A000359527950A94E2F720FF03C0BB2019F03A
:1053B00007C0BB2029F0C082D182E282F38204C000
:1053C0004083518362837383D4012C91122B019605
:1053D000BFEF8B1A9B0A349628A139A12C5F3F4F4F
:1053E00039A328A38330910531F6602F70E080E067
:1053F00090E00E9428360E9477389B01AC01109300
:105400002001C201B1010E94D8376D877E878F8746
:10541000988BBE01635F7F4FCE0101960E94503191
:1054200034E030931E010E94C3160E946D21BB2000
:10543000E9F00E940A02FE01769620E030E090E05A
:105440006191462F412359F0AC01022E02C05595BF
:1054500047950A94E2F740FF02C0609516232F5F3C
:105460003F4F2330310561F7109320010E94C3168E
:1054700080911E05847339F110911E0514FF03C03D
:1054800086E00E94271615FF03C087E00E942716BA
:10549000B11007C00E940A029F8D892339F088E06D
:1054A00003C012FF03C089E00E94271680911F05E8
:1054B000882329F00E94AE240E94B314A2C084E085
:1054C0000E942D1604C0812F847509F0B0CF0E9470
:1054D000091F00917601109177010115110549F01E
:1054E000AFE9BFE01197F1F700C0000001501109CA
:1054F000F4CFB1E0BB26C9F020E030E040EA50E450
:10550000609178017091790180917A0190917B018D
:105510000E94D8376B017C0120906E0130906F01A2
:10552000409070015090710110C0C0907801D090EF
:105530007901E0907A01F0907B0120907201309027
:1055400073014090740150907501AA94A110F7CE98
:10555000E0906D01F12C8090780190907901A090FD
:105560007A01B0907B012401350177FA709477F8C5
:1055700070948D8D9E8D002E02C0959587950A940E
:10558000E2F780FF2BC0C701002E02C095958795DA
:105590000A94E2F7E98DFA8D80FF0FC024A135A1AE
:1055A00046A157A1C501B4010E948134A98DBA8DCD
:1055B0002D913D914D915C9106C0208131814281B8
:1055C0005381C301B2010E94D8370E94A537AB8D29
:1055D000BC8D6D937D938D939C9313970F5F1F4F9D
:1055E000EB8DFC8D3496FC8FEB8F298D3A8D2C5FE3
:1055F0003F4F3A8F298F0330110509F0BACF10922F
:105600001E01A1960FB6F894DEBF0FBECDBFDF918D
:10561000CF911F910F91FF90EF90DF90CF90BF90AF
:10562000AF909F908F907F906F905F904F903F9042
:105630002F900895CF93DF93CDB7DEB761970FB664
:10564000F894DEBF0FBECDBF8091C0008260809312
:10565000C0001092C50080E18093C4008091C10019
:1056600088698093C10080E090E00E94D3018A3075
:1056700009F010C545E550E061E070E087E291E097
:105680000E942502892B09F405C58AB184658AB96F
:10569000209A8AB1886A8AB9809181008F7E80932E
:1056A00081008091810088608093810080918000DA
:1056B0008C7F80938000809180008F708093800029
:1056C00080916E00887F80936E0014BC15BC809121
:1056D0006E00816080936E0087B1887F87B988B142
:1056E000876088B980916C00876080936C0080919E
:1056F00068008260809368008CE0E1E0F1E0DF0107
:105700001D928A95E9F7789410921A0180916C01A4
:1057100084FF03C081E080931A01AAE12A2EA1E050
:105720003A2E9924939480911A019DE0F1011192EF
:105730009A95E9F780931A0184E68093210180937A
:105740002201809323018CE0ADE0B1E01D928A95A7
:10575000E9F71092190110921E0510921F05109280
:1057600020051092210580914906809348068FE319
:10577000ECE7F1E011928A95E9F76FE971E080E0DA
:105780000E949A21811103C087E00E940F270E9486
:1057900096213B9A43980E94BC013D98459A80E02F
:1057A0000E946E100E9421230E94091F0E948D22D8
:1057B0000E941F028AE591E00E947E2280916C0186
:1057C00083FF10C00E940A02882361F090921A01A0
:1057D0008DEB92E00E947E228CE592E00E947E2278
:1057E0000E94662880911A01817899F08DEB92E0F1
:1057F0000E947E2287E992E00E947E220E94662813
:1058000090921A0110E000E0E2E0EE2EF4E08F2E1C
:1058100029C010921A010E94E715F4CFE92FF0E099
:10582000E953FA4F80819F5F913809F490E090939B
:1058300048068F3FE9F08A3021F50E94B314809129
:105840001B01811170CFE12FF0E0EB54F94F108272
:10585000F02FF170FF2E00FF18C08BE00E940F2781
:1058600010E000E090914806809149069813D6CF49
:105870000E9466100E94B31480911B01882391F34B
:1058800052CF8D3009F0E0C3D8CF8091B506882380
:1058900009F4D7C3843209F0CCC3998A8091B60643
:1058A000833409F134F4882361F0843209F0F7C0BD
:1058B0001AC08A3459F08835B1F0873409F0EFC046
:1058C00012C08CED91E00E947E22B1C380911A013A
:1058D0008F7D09F09CC38091B7068D3309F094C386
:1058E0000E94D50297C39091B70691118DC383345E
:1058F00009F4A3C01CF4843239F099C3873469F0E9
:10590000883509F4BAC093C380911A018871F82EC2
:1059100009F07DC30E9457278AC386ED91E00E945B
:105920007E2280917C018C3838F082ED91E00E94DB
:105930007E2280917C018A580E94582286EC91E058
:105940000E947E22809182018A5C0E94582286EC0D
:1059500091E00E947E22809180018F5E0E945822F9
:1059600086EC91E00E947E2280917E0125E1281B39
:10597000822F0E94582286EC91E00E947E22809124
:105980007F01865A0E94582286EC91E00E947E2276
:1059900080917D019EE5981B892F0E94582280915D
:1059A0008301882399F089EC91E00E947E22809106
:1059B0008301833029F08E3139F0823039F404C00C
:1059C00080E30E94D62602C00E94582289EC91E012
:1059D0000E947E2280918501803131F0803231F049
:1059E000811107C085E303C083E301C084E30E9403
:1059F000D62689EC91E00E947E2280918401882342
:105A000011F088E301C089E30E94D6268FEC91E073
:105A10000E947E2280918E010E9458228CEC91E09F
:105A20000E947E2260918A0170918B0180918C018D
:105A300090918D010E9480100EC080911A018230D9
:105A400069F40E94AE248DEB92E00E947E2284E7EE
:105A500092E00E947E220E946628E9C28111D7C28C
:105A6000E0921A018DEB92E00E947E228DE792E097
:105A70000E947E220E94662897C180911A0181307F
:105A800009F0D5C28DEB92E00E947E2285E892E07B
:105A90000E947E220E94662810921A01C8C290912C
:105AA0001A01923008F0B3C2893409F49EC034F46C
:105AB000833271F0883409F459C02FC1823509F45A
:105AC000D6C0833509F47FC08E3409F026C1FFC0EB
:105AD0008091B706811198C210E0BE016F5F7F4FC1
